{
	"contracts/KipuBank.sol": {
		"KipuBank": {
			"abi": [
				{
					"inputs": [
						{
							"internalType": "uint256",
							"name": "_bankCap",
							"type": "uint256"
						},
						{
							"internalType": "uint256",
							"name": "_withdrawalThreshold",
							"type": "uint256"
						}
					],
					"stateMutability": "nonpayable",
					"type": "constructor"
				},
				{
					"inputs": [
						{
							"internalType": "uint256",
							"name": "attemptedAmount",
							"type": "uint256"
						},
						{
							"internalType": "uint256",
							"name": "availableCapacity",
							"type": "uint256"
						}
					],
					"name": "KipuBank_ExceedsBankCapacity",
					"type": "error"
				},
				{
					"inputs": [
						{
							"internalType": "uint256",
							"name": "requestedAmount",
							"type": "uint256"
						},
						{
							"internalType": "uint256",
							"name": "maxAllowed",
							"type": "uint256"
						}
					],
					"name": "KipuBank_ExceedsWithdrawalThreshold",
					"type": "error"
				},
				{
					"inputs": [
						{
							"internalType": "uint256",
							"name": "requestedAmount",
							"type": "uint256"
						},
						{
							"internalType": "uint256",
							"name": "availableBalance",
							"type": "uint256"
						}
					],
					"name": "KipuBank_InsufficientBalance",
					"type": "error"
				},
				{
					"inputs": [
						{
							"internalType": "bytes",
							"name": "mesgError",
							"type": "bytes"
						}
					],
					"name": "KipuBank_TransferFailed",
					"type": "error"
				},
				{
					"inputs": [],
					"name": "KipuBank_ZeroDepositAmount",
					"type": "error"
				},
				{
					"inputs": [],
					"name": "KipuBank_ZeroWithdrawalAmount",
					"type": "error"
				},
				{
					"anonymous": false,
					"inputs": [
						{
							"indexed": true,
							"internalType": "address",
							"name": "user",
							"type": "address"
						},
						{
							"indexed": false,
							"internalType": "uint256",
							"name": "amount",
							"type": "uint256"
						},
						{
							"indexed": false,
							"internalType": "uint256",
							"name": "newBalance",
							"type": "uint256"
						}
					],
					"name": "KipuBank_DepositMade",
					"type": "event"
				},
				{
					"anonymous": false,
					"inputs": [
						{
							"indexed": true,
							"internalType": "address",
							"name": "user",
							"type": "address"
						},
						{
							"indexed": false,
							"internalType": "uint256",
							"name": "amount",
							"type": "uint256"
						},
						{
							"indexed": false,
							"internalType": "uint256",
							"name": "remainingBalance",
							"type": "uint256"
						}
					],
					"name": "KipuBank_WithdrawalMade",
					"type": "event"
				},
				{
					"inputs": [
						{
							"internalType": "address",
							"name": "usuario",
							"type": "address"
						}
					],
					"name": "balances",
					"outputs": [
						{
							"internalType": "uint256",
							"name": "valor",
							"type": "uint256"
						}
					],
					"stateMutability": "view",
					"type": "function"
				},
				{
					"inputs": [],
					"name": "deposit",
					"outputs": [],
					"stateMutability": "payable",
					"type": "function"
				},
				{
					"inputs": [],
					"name": "getBankStats",
					"outputs": [
						{
							"internalType": "uint256",
							"name": "totalDeposited",
							"type": "uint256"
						},
						{
							"internalType": "uint256",
							"name": "remainingCapacity",
							"type": "uint256"
						},
						{
							"internalType": "uint256",
							"name": "totalDepositOps",
							"type": "uint256"
						},
						{
							"internalType": "uint256",
							"name": "totalWithdrawalOps",
							"type": "uint256"
						}
					],
					"stateMutability": "view",
					"type": "function"
				},
				{
					"inputs": [
						{
							"internalType": "address",
							"name": "user",
							"type": "address"
						}
					],
					"name": "getUserBalance",
					"outputs": [
						{
							"internalType": "uint256",
							"name": "balance",
							"type": "uint256"
						}
					],
					"stateMutability": "view",
					"type": "function"
				},
				{
					"inputs": [],
					"name": "s_bankCap",
					"outputs": [
						{
							"internalType": "uint256",
							"name": "",
							"type": "uint256"
						}
					],
					"stateMutability": "view",
					"type": "function"
				},
				{
					"inputs": [],
					"name": "s_depositCount",
					"outputs": [
						{
							"internalType": "uint256",
							"name": "",
							"type": "uint256"
						}
					],
					"stateMutability": "view",
					"type": "function"
				},
				{
					"inputs": [],
					"name": "s_withdrawalCount",
					"outputs": [
						{
							"internalType": "uint256",
							"name": "",
							"type": "uint256"
						}
					],
					"stateMutability": "view",
					"type": "function"
				},
				{
					"inputs": [],
					"name": "s_withdrawalThreshold",
					"outputs": [
						{
							"internalType": "uint256",
							"name": "",
							"type": "uint256"
						}
					],
					"stateMutability": "view",
					"type": "function"
				},
				{
					"inputs": [
						{
							"internalType": "uint256",
							"name": "_amount",
							"type": "uint256"
						}
					],
					"name": "withdraw",
					"outputs": [],
					"stateMutability": "payable",
					"type": "function"
				}
			],
			"devdoc": {
				"kind": "dev",
				"methods": {},
				"version": 1
			},
			"evm": {
				"assembly": "    /* \"contracts/KipuBank.sol\":219:9593  contract KipuBank {... */\n  mstore(0x40, 0xc0)\n    /* \"contracts/KipuBank.sol\":6305:6593  constructor (uint256 _bankCap, uint256 _withdrawalThreshold) nonZeroAmountToWithdraw(_withdrawalThreshold) nonZeroAmountToDeposit(_bankCap) {... */\n  callvalue\n  dup1\n  iszero\n  tag_1\n  jumpi\n  0x00\n  dup1\n  revert\ntag_1:\n  pop\n  mload(0x40)\n  sub(codesize, bytecodeSize)\n  dup1\n  bytecodeSize\n  dup4\n  codecopy\n  dup2\n  dup2\n  add\n  0x40\n  mstore\n  dup2\n  add\n  swap1\n  tag_2\n  swap2\n  swap1\n  tag_3\n  jump\t// in\ntag_2:\n    /* \"contracts/KipuBank.sol\":6390:6410  _withdrawalThreshold */\n  dup1\n    /* \"contracts/KipuBank.sol\":3934:3935  0 */\n  0x00\n    /* \"contracts/KipuBank.sol\":3923:3930  _amount */\n  dup2\n    /* \"contracts/KipuBank.sol\":3923:3935  _amount == 0 */\n  sub\n    /* \"contracts/KipuBank.sol\":3919:3987  if (_amount == 0)... */\n  tag_6\n  jumpi\n    /* \"contracts/KipuBank.sol\":3956:3987  KipuBank_ZeroWithdrawalAmount() */\n  mload(0x40)\n  0x0e45770000000000000000000000000000000000000000000000000000000000\n  dup2\n  mstore\n  0x04\n  add\n  mload(0x40)\n  dup1\n  swap2\n  sub\n  swap1\n  revert\n    /* \"contracts/KipuBank.sol\":3919:3987  if (_amount == 0)... */\ntag_6:\n    /* \"contracts/KipuBank.sol\":6435:6443  _bankCap */\n  dup3\n    /* \"contracts/KipuBank.sol\":3655:3656  0 */\n  0x00\n    /* \"contracts/KipuBank.sol\":3644:3651  _amount */\n  dup2\n    /* \"contracts/KipuBank.sol\":3644:3656  _amount == 0 */\n  sub\n    /* \"contracts/KipuBank.sol\":3640:3705  if (_amount == 0)... */\n  tag_8\n  jumpi\n    /* \"contracts/KipuBank.sol\":3677:3705  KipuBank_ZeroDepositAmount() */\n  mload(0x40)\n  0xdea6880b00000000000000000000000000000000000000000000000000000000\n  dup2\n  mstore\n  0x04\n  add\n  mload(0x40)\n  dup1\n  swap2\n  sub\n  swap1\n  revert\n    /* \"contracts/KipuBank.sol\":3640:3705  if (_amount == 0)... */\ntag_8:\n    /* \"contracts/KipuBank.sol\":6467:6475  _bankCap */\n  dup4\n    /* \"contracts/KipuBank.sol\":6455:6475  s_bankCap = _bankCap */\n  0xa0\n  dup2\n  dup2\n  mstore\n  pop\n  pop\n    /* \"contracts/KipuBank.sol\":6509:6529  _withdrawalThreshold */\n  dup3\n    /* \"contracts/KipuBank.sol\":6485:6529  s_withdrawalThreshold = _withdrawalThreshold */\n  0x80\n  dup2\n  dup2\n  mstore\n  pop\n  pop\n    /* \"contracts/KipuBank.sol\":6557:6558  0 */\n  0x00\n    /* \"contracts/KipuBank.sol\":6539:6554  s_totalDeposits */\n  dup1\n    /* \"contracts/KipuBank.sol\":6539:6558  s_totalDeposits = 0 */\n  dup2\n  swap1\n  sstore\n  pop\n    /* \"contracts/KipuBank.sol\":6585:6586  0 */\n  0x00\n    /* \"contracts/KipuBank.sol\":6568:6582  s_depositCount */\n  0x01\n    /* \"contracts/KipuBank.sol\":6568:6586  s_depositCount = 0 */\n  dup2\n  swap1\n  sstore\n  pop\n    /* \"contracts/KipuBank.sol\":3997:3998  _ */\n  pop\n    /* \"contracts/KipuBank.sol\":6305:6593  constructor (uint256 _bankCap, uint256 _withdrawalThreshold) nonZeroAmountToWithdraw(_withdrawalThreshold) nonZeroAmountToDeposit(_bankCap) {... */\n  pop\n  pop\n  pop\n    /* \"contracts/KipuBank.sol\":219:9593  contract KipuBank {... */\n  jump(tag_10)\n    /* \"#utility.yul\":88:205   */\ntag_12:\n    /* \"#utility.yul\":197:198   */\n  0x00\n    /* \"#utility.yul\":194:195   */\n  dup1\n    /* \"#utility.yul\":187:199   */\n  revert\n    /* \"#utility.yul\":334:411   */\ntag_14:\n    /* \"#utility.yul\":371:378   */\n  0x00\n    /* \"#utility.yul\":400:405   */\n  dup2\n    /* \"#utility.yul\":389:405   */\n  swap1\n  pop\n    /* \"#utility.yul\":334:411   */\n  swap2\n  swap1\n  pop\n  jump\t// out\n    /* \"#utility.yul\":417:539   */\ntag_15:\n    /* \"#utility.yul\":490:514   */\n  tag_23\n    /* \"#utility.yul\":508:513   */\n  dup2\n    /* \"#utility.yul\":490:514   */\n  tag_14\n  jump\t// in\ntag_23:\n    /* \"#utility.yul\":483:488   */\n  dup2\n    /* \"#utility.yul\":480:515   */\n  eq\n    /* \"#utility.yul\":470:533   */\n  tag_24\n  jumpi\n    /* \"#utility.yul\":529:530   */\n  0x00\n    /* \"#utility.yul\":526:527   */\n  dup1\n    /* \"#utility.yul\":519:531   */\n  revert\n    /* \"#utility.yul\":470:533   */\ntag_24:\n    /* \"#utility.yul\":417:539   */\n  pop\n  jump\t// out\n    /* \"#utility.yul\":545:688   */\ntag_16:\n    /* \"#utility.yul\":602:607   */\n  0x00\n    /* \"#utility.yul\":633:639   */\n  dup2\n    /* \"#utility.yul\":627:640   */\n  mload\n    /* \"#utility.yul\":618:640   */\n  swap1\n  pop\n    /* \"#utility.yul\":649:682   */\n  tag_26\n    /* \"#utility.yul\":676:681   */\n  dup2\n    /* \"#utility.yul\":649:682   */\n  tag_15\n  jump\t// in\ntag_26:\n    /* \"#utility.yul\":545:688   */\n  swap3\n  swap2\n  pop\n  pop\n  jump\t// out\n    /* \"#utility.yul\":694:1201   */\ntag_3:\n    /* \"#utility.yul\":773:779   */\n  0x00\n    /* \"#utility.yul\":781:787   */\n  dup1\n    /* \"#utility.yul\":830:832   */\n  0x40\n    /* \"#utility.yul\":818:827   */\n  dup4\n    /* \"#utility.yul\":809:816   */\n  dup6\n    /* \"#utility.yul\":805:828   */\n  sub\n    /* \"#utility.yul\":801:833   */\n  slt\n    /* \"#utility.yul\":798:917   */\n  iszero\n  tag_28\n  jumpi\n    /* \"#utility.yul\":836:915   */\n  tag_29\n  tag_12\n  jump\t// in\ntag_29:\n    /* \"#utility.yul\":798:917   */\ntag_28:\n    /* \"#utility.yul\":956:957   */\n  0x00\n    /* \"#utility.yul\":981:1045   */\n  tag_30\n    /* \"#utility.yul\":1037:1044   */\n  dup6\n    /* \"#utility.yul\":1028:1034   */\n  dup3\n    /* \"#utility.yul\":1017:1026   */\n  dup7\n    /* \"#utility.yul\":1013:1035   */\n  add\n    /* \"#utility.yul\":981:1045   */\n  tag_16\n  jump\t// in\ntag_30:\n    /* \"#utility.yul\":971:1045   */\n  swap3\n  pop\n    /* \"#utility.yul\":927:1055   */\n  pop\n    /* \"#utility.yul\":1094:1096   */\n  0x20\n    /* \"#utility.yul\":1120:1184   */\n  tag_31\n    /* \"#utility.yul\":1176:1183   */\n  dup6\n    /* \"#utility.yul\":1167:1173   */\n  dup3\n    /* \"#utility.yul\":1156:1165   */\n  dup7\n    /* \"#utility.yul\":1152:1174   */\n  add\n    /* \"#utility.yul\":1120:1184   */\n  tag_16\n  jump\t// in\ntag_31:\n    /* \"#utility.yul\":1110:1184   */\n  swap2\n  pop\n    /* \"#utility.yul\":1065:1194   */\n  pop\n    /* \"#utility.yul\":694:1201   */\n  swap3\n  pop\n  swap3\n  swap1\n  pop\n  jump\t// out\n    /* \"contracts/KipuBank.sol\":219:9593  contract KipuBank {... */\ntag_10:\n  mload(0x80)\n  mload(0xa0)\n  codecopy(0x00, dataOffset(sub_0), dataSize(sub_0))\n  0x00\n  assignImmutable(\"0xceebf77a833b30520287ddd9478ff51abbdffa30aa90a8d655dba0e8a79ce0c1\")\n  0x00\n  assignImmutable(\"0x2a80e1ef1d7842f27f2e6be0972bb708b9a135c38860dbe73c27c3486c34f4de\")\n  return(0x00, dataSize(sub_0))\nstop\n\nsub_0: assembly {\n        /* \"contracts/KipuBank.sol\":219:9593  contract KipuBank {... */\n      mstore(0x40, 0x80)\n      jumpi(tag_1, lt(calldatasize, 0x04))\n      shr(0xe0, calldataload(0x00))\n      dup1\n      0xb2343b1c\n      gt\n      tag_11\n      jumpi\n      dup1\n      0xb2343b1c\n      eq\n      tag_6\n      jumpi\n      dup1\n      0xc6e8e38c\n      eq\n      tag_7\n      jumpi\n      dup1\n      0xc87a1ba2\n      eq\n      tag_8\n      jumpi\n      dup1\n      0xcac2e25f\n      eq\n      tag_9\n      jumpi\n      dup1\n      0xd0e30db0\n      eq\n      tag_10\n      jumpi\n      jump(tag_1)\n    tag_11:\n      dup1\n      0x27e235e3\n      eq\n      tag_2\n      jumpi\n      dup1\n      0x2e1a7d4d\n      eq\n      tag_3\n      jumpi\n      dup1\n      0x47734892\n      eq\n      tag_4\n      jumpi\n      dup1\n      0x80ef10ed\n      eq\n      tag_5\n      jumpi\n    tag_1:\n      0x00\n      dup1\n      revert\n        /* \"contracts/KipuBank.sol\":1208:1265  mapping(address usuario => uint256 valor) public balances */\n    tag_2:\n      callvalue\n      dup1\n      iszero\n      tag_12\n      jumpi\n      0x00\n      dup1\n      revert\n    tag_12:\n      pop\n      tag_13\n      0x04\n      dup1\n      calldatasize\n      sub\n      dup2\n      add\n      swap1\n      tag_14\n      swap2\n      swap1\n      tag_15\n      jump\t// in\n    tag_14:\n      tag_16\n      jump\t// in\n    tag_13:\n      mload(0x40)\n      tag_17\n      swap2\n      swap1\n      tag_18\n      jump\t// in\n    tag_17:\n      mload(0x40)\n      dup1\n      swap2\n      sub\n      swap1\n      return\n        /* \"contracts/KipuBank.sol\":7544:8027  function withdraw(uint256 _amount) external payable nonZeroAmountToWithdraw(_amount) hasSufficientBalance(msg.sender, _amount) { ... */\n    tag_3:\n      tag_19\n      0x04\n      dup1\n      calldatasize\n      sub\n      dup2\n      add\n      swap1\n      tag_20\n      swap2\n      swap1\n      tag_21\n      jump\t// in\n    tag_20:\n      tag_22\n      jump\t// in\n    tag_19:\n      stop\n        /* \"contracts/KipuBank.sol\":8783:8899  function getUserBalance(address user) external view returns (uint256 balance) {... */\n    tag_4:\n      callvalue\n      dup1\n      iszero\n      tag_23\n      jumpi\n      0x00\n      dup1\n      revert\n    tag_23:\n      pop\n      tag_24\n      0x04\n      dup1\n      calldatasize\n      sub\n      dup2\n      add\n      swap1\n      tag_25\n      swap2\n      swap1\n      tag_15\n      jump\t// in\n    tag_25:\n      tag_26\n      jump\t// in\n    tag_24:\n      mload(0x40)\n      tag_27\n      swap2\n      swap1\n      tag_18\n      jump\t// in\n    tag_27:\n      mload(0x40)\n      dup1\n      swap2\n      sub\n      swap1\n      return\n        /* \"contracts/KipuBank.sol\":638:672  uint256 public immutable s_bankCap */\n    tag_5:\n      callvalue\n      dup1\n      iszero\n      tag_28\n      jumpi\n      0x00\n      dup1\n      revert\n    tag_28:\n      pop\n      tag_29\n      tag_30\n      jump\t// in\n    tag_29:\n      mload(0x40)\n      tag_31\n      swap2\n      swap1\n      tag_18\n      jump\t// in\n    tag_31:\n      mload(0x40)\n      dup1\n      swap2\n      sub\n      swap1\n      return\n        /* \"contracts/KipuBank.sol\":1057:1089  uint256 public s_withdrawalCount */\n    tag_6:\n      callvalue\n      dup1\n      iszero\n      tag_32\n      jumpi\n      0x00\n      dup1\n      revert\n    tag_32:\n      pop\n      tag_33\n      tag_34\n      jump\t// in\n    tag_33:\n      mload(0x40)\n      tag_35\n      swap2\n      swap1\n      tag_18\n      jump\t// in\n    tag_35:\n      mload(0x40)\n      dup1\n      swap2\n      sub\n      swap1\n      return\n        /* \"contracts/KipuBank.sol\":9277:9591  function getBankStats() external view returns (uint256 totalDeposited, uint256 remainingCapacity, uint256 totalDepositOps, uint256 totalWithdrawalOps) {... */\n    tag_7:\n      callvalue\n      dup1\n      iszero\n      tag_36\n      jumpi\n      0x00\n      dup1\n      revert\n    tag_36:\n      pop\n      tag_37\n      tag_38\n      jump\t// in\n    tag_37:\n      mload(0x40)\n      tag_39\n      swap5\n      swap4\n      swap3\n      swap2\n      swap1\n      tag_40\n      jump\t// in\n    tag_39:\n      mload(0x40)\n      dup1\n      swap2\n      sub\n      swap1\n      return\n        /* \"contracts/KipuBank.sol\":410:456  uint256 public immutable s_withdrawalThreshold */\n    tag_8:\n      callvalue\n      dup1\n      iszero\n      tag_41\n      jumpi\n      0x00\n      dup1\n      revert\n    tag_41:\n      pop\n      tag_42\n      tag_43\n      jump\t// in\n    tag_42:\n      mload(0x40)\n      tag_44\n      swap2\n      swap1\n      tag_18\n      jump\t// in\n    tag_44:\n      mload(0x40)\n      dup1\n      swap2\n      sub\n      swap1\n      return\n        /* \"contracts/KipuBank.sol\":936:965  uint256 public s_depositCount */\n    tag_9:\n      callvalue\n      dup1\n      iszero\n      tag_45\n      jumpi\n      0x00\n      dup1\n      revert\n    tag_45:\n      pop\n      tag_46\n      tag_47\n      jump\t// in\n    tag_46:\n      mload(0x40)\n      tag_48\n      swap2\n      swap1\n      tag_18\n      jump\t// in\n    tag_48:\n      mload(0x40)\n      dup1\n      swap2\n      sub\n      swap1\n      return\n        /* \"contracts/KipuBank.sol\":6846:7321  function deposit() external payable nonZeroAmountToDeposit(msg.value) verifyBankCapacity(s_totalDeposits, s_bankCap, msg.value) {... */\n    tag_10:\n      tag_49\n      tag_50\n      jump\t// in\n    tag_49:\n      stop\n        /* \"contracts/KipuBank.sol\":1208:1265  mapping(address usuario => uint256 valor) public balances */\n    tag_16:\n      mstore(0x20, 0x03)\n      dup1\n      0x00\n      mstore\n      keccak256(0x00, 0x40)\n      0x00\n      swap2\n      pop\n      swap1\n      pop\n      sload\n      dup2\n      jump\t// out\n        /* \"contracts/KipuBank.sol\":7544:8027  function withdraw(uint256 _amount) external payable nonZeroAmountToWithdraw(_amount) hasSufficientBalance(msg.sender, _amount) { ... */\n    tag_22:\n        /* \"contracts/KipuBank.sol\":7620:7627  _amount */\n      dup1\n        /* \"contracts/KipuBank.sol\":3934:3935  0 */\n      0x00\n        /* \"contracts/KipuBank.sol\":3923:3930  _amount */\n      dup2\n        /* \"contracts/KipuBank.sol\":3923:3935  _amount == 0 */\n      sub\n        /* \"contracts/KipuBank.sol\":3919:3987  if (_amount == 0)... */\n      tag_52\n      jumpi\n        /* \"contracts/KipuBank.sol\":3956:3987  KipuBank_ZeroWithdrawalAmount() */\n      mload(0x40)\n      0x0e45770000000000000000000000000000000000000000000000000000000000\n      dup2\n      mstore\n      0x04\n      add\n      mload(0x40)\n      dup1\n      swap2\n      sub\n      swap1\n      revert\n        /* \"contracts/KipuBank.sol\":3919:3987  if (_amount == 0)... */\n    tag_52:\n        /* \"contracts/KipuBank.sol\":7650:7660  msg.sender */\n      caller\n        /* \"contracts/KipuBank.sol\":7662:7669  _amount */\n      dup3\n        /* \"contracts/KipuBank.sol\":4288:4295  _amount */\n      dup1\n        /* \"contracts/KipuBank.sol\":4270:4278  balances */\n      0x03\n        /* \"contracts/KipuBank.sol\":4270:4285  balances[_user] */\n      0x00\n        /* \"contracts/KipuBank.sol\":4279:4284  _user */\n      dup5\n        /* \"contracts/KipuBank.sol\":4270:4285  balances[_user] */\n      0xffffffffffffffffffffffffffffffffffffffff\n      and\n      0xffffffffffffffffffffffffffffffffffffffff\n      and\n      dup2\n      mstore\n      0x20\n      add\n      swap1\n      dup2\n      mstore\n      0x20\n      add\n      0x00\n      keccak256\n      sload\n        /* \"contracts/KipuBank.sol\":4270:4295  balances[_user] < _amount */\n      lt\n        /* \"contracts/KipuBank.sol\":4266:4383  if (balances[_user] < _amount) {... */\n      iszero\n      tag_54\n      jumpi\n        /* \"contracts/KipuBank.sol\":4347:4354  _amount */\n      dup1\n        /* \"contracts/KipuBank.sol\":4356:4364  balances */\n      0x03\n        /* \"contracts/KipuBank.sol\":4356:4371  balances[_user] */\n      0x00\n        /* \"contracts/KipuBank.sol\":4365:4370  _user */\n      dup5\n        /* \"contracts/KipuBank.sol\":4356:4371  balances[_user] */\n      0xffffffffffffffffffffffffffffffffffffffff\n      and\n      0xffffffffffffffffffffffffffffffffffffffff\n      and\n      dup2\n      mstore\n      0x20\n      add\n      swap1\n      dup2\n      mstore\n      0x20\n      add\n      0x00\n      keccak256\n      sload\n        /* \"contracts/KipuBank.sol\":4318:4372  KipuBank_InsufficientBalance(_amount, balances[_user]) */\n      mload(0x40)\n      0x8963f2d700000000000000000000000000000000000000000000000000000000\n      dup2\n      mstore\n      0x04\n      add\n      tag_55\n      swap3\n      swap2\n      swap1\n      tag_56\n      jump\t// in\n    tag_55:\n      mload(0x40)\n      dup1\n      swap2\n      sub\n      swap1\n      revert\n        /* \"contracts/KipuBank.sol\":4266:4383  if (balances[_user] < _amount) {... */\n    tag_54:\n        /* \"contracts/KipuBank.sol\":7763:7770  _amount */\n      dup4\n        /* \"contracts/KipuBank.sol\":7739:7747  balances */\n      0x03\n        /* \"contracts/KipuBank.sol\":7739:7759  balances[msg.sender] */\n      0x00\n        /* \"contracts/KipuBank.sol\":7748:7758  msg.sender */\n      caller\n        /* \"contracts/KipuBank.sol\":7739:7759  balances[msg.sender] */\n      0xffffffffffffffffffffffffffffffffffffffff\n      and\n      0xffffffffffffffffffffffffffffffffffffffff\n      and\n      dup2\n      mstore\n      0x20\n      add\n      swap1\n      dup2\n      mstore\n      0x20\n      add\n      0x00\n      keccak256\n      0x00\n        /* \"contracts/KipuBank.sol\":7739:7770  balances[msg.sender] -= _amount */\n      dup3\n      dup3\n      sload\n      tag_58\n      swap2\n      swap1\n      tag_59\n      jump\t// in\n    tag_58:\n      swap3\n      pop\n      pop\n      dup2\n      swap1\n      sstore\n      pop\n        /* \"contracts/KipuBank.sol\":7799:7806  _amount */\n      dup4\n        /* \"contracts/KipuBank.sol\":7780:7795  s_totalDeposits */\n      0x00\n      dup1\n        /* \"contracts/KipuBank.sol\":7780:7806  s_totalDeposits -= _amount */\n      dup3\n      dup3\n      sload\n      tag_60\n      swap2\n      swap1\n      tag_59\n      jump\t// in\n    tag_60:\n      swap3\n      pop\n      pop\n      dup2\n      swap1\n      sstore\n      pop\n        /* \"contracts/KipuBank.sol\":7816:7833  s_withdrawalCount */\n      0x02\n      0x00\n        /* \"contracts/KipuBank.sol\":7816:7835  s_withdrawalCount++ */\n      dup2\n      sload\n      dup1\n      swap3\n      swap2\n      swap1\n      tag_61\n      swap1\n      tag_62\n      jump\t// in\n    tag_61:\n      swap2\n      swap1\n      pop\n      sstore\n      pop\n        /* \"contracts/KipuBank.sol\":7896:7930  _safeTransfer(msg.sender, _amount) */\n      tag_63\n        /* \"contracts/KipuBank.sol\":7910:7920  msg.sender */\n      caller\n        /* \"contracts/KipuBank.sol\":7922:7929  _amount */\n      dup6\n        /* \"contracts/KipuBank.sol\":7896:7909  _safeTransfer */\n      tag_64\n        /* \"contracts/KipuBank.sol\":7896:7930  _safeTransfer(msg.sender, _amount) */\n      jump\t// in\n    tag_63:\n        /* \"contracts/KipuBank.sol\":7978:7988  msg.sender */\n      caller\n        /* \"contracts/KipuBank.sol\":7954:8020  KipuBank_WithdrawalMade(msg.sender, _amount, balances[msg.sender]) */\n      0xffffffffffffffffffffffffffffffffffffffff\n      and\n      0x751eed5275edf3e893242f216327249fcffb890ff19dbfdd0707ceed74172680\n        /* \"contracts/KipuBank.sol\":7990:7997  _amount */\n      dup6\n        /* \"contracts/KipuBank.sol\":7999:8007  balances */\n      0x03\n        /* \"contracts/KipuBank.sol\":7999:8019  balances[msg.sender] */\n      0x00\n        /* \"contracts/KipuBank.sol\":8008:8018  msg.sender */\n      caller\n        /* \"contracts/KipuBank.sol\":7999:8019  balances[msg.sender] */\n      0xffffffffffffffffffffffffffffffffffffffff\n      and\n      0xffffffffffffffffffffffffffffffffffffffff\n      and\n      dup2\n      mstore\n      0x20\n      add\n      swap1\n      dup2\n      mstore\n      0x20\n      add\n      0x00\n      keccak256\n      sload\n        /* \"contracts/KipuBank.sol\":7954:8020  KipuBank_WithdrawalMade(msg.sender, _amount, balances[msg.sender]) */\n      mload(0x40)\n      tag_65\n      swap3\n      swap2\n      swap1\n      tag_56\n      jump\t// in\n    tag_65:\n      mload(0x40)\n      dup1\n      swap2\n      sub\n      swap1\n      log2\n        /* \"contracts/KipuBank.sol\":3997:3998  _ */\n      pop\n      pop\n        /* \"contracts/KipuBank.sol\":7544:8027  function withdraw(uint256 _amount) external payable nonZeroAmountToWithdraw(_amount) hasSufficientBalance(msg.sender, _amount) { ... */\n      pop\n      pop\n      jump\t// out\n        /* \"contracts/KipuBank.sol\":8783:8899  function getUserBalance(address user) external view returns (uint256 balance) {... */\n    tag_26:\n        /* \"contracts/KipuBank.sol\":8844:8859  uint256 balance */\n      0x00\n        /* \"contracts/KipuBank.sol\":8878:8886  balances */\n      0x03\n        /* \"contracts/KipuBank.sol\":8878:8892  balances[user] */\n      0x00\n        /* \"contracts/KipuBank.sol\":8887:8891  user */\n      dup4\n        /* \"contracts/KipuBank.sol\":8878:8892  balances[user] */\n      0xffffffffffffffffffffffffffffffffffffffff\n      and\n      0xffffffffffffffffffffffffffffffffffffffff\n      and\n      dup2\n      mstore\n      0x20\n      add\n      swap1\n      dup2\n      mstore\n      0x20\n      add\n      0x00\n      keccak256\n      sload\n        /* \"contracts/KipuBank.sol\":8871:8892  return balances[user] */\n      swap1\n      pop\n        /* \"contracts/KipuBank.sol\":8783:8899  function getUserBalance(address user) external view returns (uint256 balance) {... */\n      swap2\n      swap1\n      pop\n      jump\t// out\n        /* \"contracts/KipuBank.sol\":638:672  uint256 public immutable s_bankCap */\n    tag_30:\n      immutable(\"0xceebf77a833b30520287ddd9478ff51abbdffa30aa90a8d655dba0e8a79ce0c1\")\n      dup2\n      jump\t// out\n        /* \"contracts/KipuBank.sol\":1057:1089  uint256 public s_withdrawalCount */\n    tag_34:\n      sload(0x02)\n      dup2\n      jump\t// out\n        /* \"contracts/KipuBank.sol\":9277:9591  function getBankStats() external view returns (uint256 totalDeposited, uint256 remainingCapacity, uint256 totalDepositOps, uint256 totalWithdrawalOps) {... */\n    tag_38:\n        /* \"contracts/KipuBank.sol\":9324:9346  uint256 totalDeposited */\n      0x00\n        /* \"contracts/KipuBank.sol\":9348:9373  uint256 remainingCapacity */\n      dup1\n        /* \"contracts/KipuBank.sol\":9375:9398  uint256 totalDepositOps */\n      0x00\n        /* \"contracts/KipuBank.sol\":9400:9426  uint256 totalWithdrawalOps */\n      dup1\n        /* \"contracts/KipuBank.sol\":9459:9474  s_totalDeposits */\n      sload(0x00)\n        /* \"contracts/KipuBank.sol\":9500:9515  s_totalDeposits */\n      sload(0x00)\n        /* \"contracts/KipuBank.sol\":9488:9497  s_bankCap */\n      immutable(\"0xceebf77a833b30520287ddd9478ff51abbdffa30aa90a8d655dba0e8a79ce0c1\")\n        /* \"contracts/KipuBank.sol\":9488:9515  s_bankCap - s_totalDeposits */\n      tag_68\n      swap2\n      swap1\n      tag_59\n      jump\t// in\n    tag_68:\n        /* \"contracts/KipuBank.sol\":9529:9543  s_depositCount */\n      sload(0x01)\n        /* \"contracts/KipuBank.sol\":9557:9574  s_withdrawalCount */\n      sload(0x02)\n        /* \"contracts/KipuBank.sol\":9438:9584  return (... */\n      swap4\n      pop\n      swap4\n      pop\n      swap4\n      pop\n      swap4\n      pop\n        /* \"contracts/KipuBank.sol\":9277:9591  function getBankStats() external view returns (uint256 totalDeposited, uint256 remainingCapacity, uint256 totalDepositOps, uint256 totalWithdrawalOps) {... */\n      swap1\n      swap2\n      swap3\n      swap4\n      jump\t// out\n        /* \"contracts/KipuBank.sol\":410:456  uint256 public immutable s_withdrawalThreshold */\n    tag_43:\n      immutable(\"0x2a80e1ef1d7842f27f2e6be0972bb708b9a135c38860dbe73c27c3486c34f4de\")\n      dup2\n      jump\t// out\n        /* \"contracts/KipuBank.sol\":936:965  uint256 public s_depositCount */\n    tag_47:\n      sload(0x01)\n      dup2\n      jump\t// out\n        /* \"contracts/KipuBank.sol\":6846:7321  function deposit() external payable nonZeroAmountToDeposit(msg.value) verifyBankCapacity(s_totalDeposits, s_bankCap, msg.value) {... */\n    tag_50:\n        /* \"contracts/KipuBank.sol\":6905:6914  msg.value */\n      callvalue\n        /* \"contracts/KipuBank.sol\":3655:3656  0 */\n      0x00\n        /* \"contracts/KipuBank.sol\":3644:3651  _amount */\n      dup2\n        /* \"contracts/KipuBank.sol\":3644:3656  _amount == 0 */\n      sub\n        /* \"contracts/KipuBank.sol\":3640:3705  if (_amount == 0)... */\n      tag_70\n      jumpi\n        /* \"contracts/KipuBank.sol\":3677:3705  KipuBank_ZeroDepositAmount() */\n      mload(0x40)\n      0xdea6880b00000000000000000000000000000000000000000000000000000000\n      dup2\n      mstore\n      0x04\n      add\n      mload(0x40)\n      dup1\n      swap2\n      sub\n      swap1\n      revert\n        /* \"contracts/KipuBank.sol\":3640:3705  if (_amount == 0)... */\n    tag_70:\n        /* \"contracts/KipuBank.sol\":6935:6950  s_totalDeposits */\n      sload(0x00)\n        /* \"contracts/KipuBank.sol\":6952:6961  s_bankCap */\n      immutable(\"0xceebf77a833b30520287ddd9478ff51abbdffa30aa90a8d655dba0e8a79ce0c1\")\n        /* \"contracts/KipuBank.sol\":6963:6972  msg.value */\n      callvalue\n        /* \"contracts/KipuBank.sol\":4802:4826  uint256 newTotalDeposits */\n      0x00\n        /* \"contracts/KipuBank.sol\":4846:4853  _amount */\n      dup2\n        /* \"contracts/KipuBank.sol\":4829:4843  _totalDeposits */\n      dup5\n        /* \"contracts/KipuBank.sol\":4829:4853  _totalDeposits + _amount */\n      tag_72\n      swap2\n      swap1\n      tag_73\n      jump\t// in\n    tag_72:\n        /* \"contracts/KipuBank.sol\":4802:4853  uint256 newTotalDeposits = _totalDeposits + _amount */\n      swap1\n      pop\n        /* \"contracts/KipuBank.sol\":4886:4904  _maxDepositAllowed */\n      dup3\n        /* \"contracts/KipuBank.sol\":4867:4883  newTotalDeposits */\n      dup2\n        /* \"contracts/KipuBank.sol\":4867:4904  newTotalDeposits > _maxDepositAllowed */\n      gt\n        /* \"contracts/KipuBank.sol\":4863:5012  if (newTotalDeposits > _maxDepositAllowed) {... */\n      iszero\n      tag_74\n      jumpi\n        /* \"contracts/KipuBank.sol\":4956:4963  _amount */\n      dup2\n        /* \"contracts/KipuBank.sol\":4986:5000  _totalDeposits */\n      dup5\n        /* \"contracts/KipuBank.sol\":4965:4983  _maxDepositAllowed */\n      dup5\n        /* \"contracts/KipuBank.sol\":4965:5000  _maxDepositAllowed - _totalDeposits */\n      tag_75\n      swap2\n      swap1\n      tag_59\n      jump\t// in\n    tag_75:\n        /* \"contracts/KipuBank.sol\":4927:5001  KipuBank_ExceedsBankCapacity(_amount, _maxDepositAllowed - _totalDeposits) */\n      mload(0x40)\n      0x17f8edba00000000000000000000000000000000000000000000000000000000\n      dup2\n      mstore\n      0x04\n      add\n      tag_76\n      swap3\n      swap2\n      swap1\n      tag_56\n      jump\t// in\n    tag_76:\n      mload(0x40)\n      dup1\n      swap2\n      sub\n      swap1\n      revert\n        /* \"contracts/KipuBank.sol\":4863:5012  if (newTotalDeposits > _maxDepositAllowed) {... */\n    tag_74:\n        /* \"contracts/KipuBank.sol\":7089:7098  msg.value */\n      callvalue\n        /* \"contracts/KipuBank.sol\":7065:7073  balances */\n      0x03\n        /* \"contracts/KipuBank.sol\":7065:7085  balances[msg.sender] */\n      0x00\n        /* \"contracts/KipuBank.sol\":7074:7084  msg.sender */\n      caller\n        /* \"contracts/KipuBank.sol\":7065:7085  balances[msg.sender] */\n      0xffffffffffffffffffffffffffffffffffffffff\n      and\n      0xffffffffffffffffffffffffffffffffffffffff\n      and\n      dup2\n      mstore\n      0x20\n      add\n      swap1\n      dup2\n      mstore\n      0x20\n      add\n      0x00\n      keccak256\n      0x00\n        /* \"contracts/KipuBank.sol\":7065:7098  balances[msg.sender] += msg.value */\n      dup3\n      dup3\n      sload\n      tag_78\n      swap2\n      swap1\n      tag_73\n      jump\t// in\n    tag_78:\n      swap3\n      pop\n      pop\n      dup2\n      swap1\n      sstore\n      pop\n        /* \"contracts/KipuBank.sol\":7145:7154  msg.value */\n      callvalue\n        /* \"contracts/KipuBank.sol\":7127:7142  s_totalDeposits */\n      sload(0x00)\n        /* \"contracts/KipuBank.sol\":7127:7154  s_totalDeposits + msg.value */\n      tag_79\n      swap2\n      swap1\n      tag_73\n      jump\t// in\n    tag_79:\n        /* \"contracts/KipuBank.sol\":7108:7123  s_totalDeposits */\n      0x00\n      dup1\n        /* \"contracts/KipuBank.sol\":7108:7154  s_totalDeposits += s_totalDeposits + msg.value */\n      dup3\n      dup3\n      sload\n      tag_80\n      swap2\n      swap1\n      tag_73\n      jump\t// in\n    tag_80:\n      swap3\n      pop\n      pop\n      dup2\n      swap1\n      sstore\n      pop\n        /* \"contracts/KipuBank.sol\":7164:7178  s_depositCount */\n      0x01\n      0x00\n        /* \"contracts/KipuBank.sol\":7164:7180  s_depositCount++ */\n      dup2\n      sload\n      dup1\n      swap3\n      swap2\n      swap1\n      tag_81\n      swap1\n      tag_62\n      jump\t// in\n    tag_81:\n      swap2\n      swap1\n      pop\n      sstore\n      pop\n        /* \"contracts/KipuBank.sol\":7270:7280  msg.sender */\n      caller\n        /* \"contracts/KipuBank.sol\":7249:7314  KipuBank_DepositMade(msg.sender, msg.value, balances[msg.sender]) */\n      0xffffffffffffffffffffffffffffffffffffffff\n      and\n      0x1464aebfd935135df103abcee703eee0165d4967204767e264b4cbb9a2a8a85a\n        /* \"contracts/KipuBank.sol\":7282:7291  msg.value */\n      callvalue\n        /* \"contracts/KipuBank.sol\":7293:7301  balances */\n      0x03\n        /* \"contracts/KipuBank.sol\":7293:7313  balances[msg.sender] */\n      0x00\n        /* \"contracts/KipuBank.sol\":7302:7312  msg.sender */\n      caller\n        /* \"contracts/KipuBank.sol\":7293:7313  balances[msg.sender] */\n      0xffffffffffffffffffffffffffffffffffffffff\n      and\n      0xffffffffffffffffffffffffffffffffffffffff\n      and\n      dup2\n      mstore\n      0x20\n      add\n      swap1\n      dup2\n      mstore\n      0x20\n      add\n      0x00\n      keccak256\n      sload\n        /* \"contracts/KipuBank.sol\":7249:7314  KipuBank_DepositMade(msg.sender, msg.value, balances[msg.sender]) */\n      mload(0x40)\n      tag_82\n      swap3\n      swap2\n      swap1\n      tag_56\n      jump\t// in\n    tag_82:\n      mload(0x40)\n      dup1\n      swap2\n      sub\n      swap1\n      log2\n        /* \"contracts/KipuBank.sol\":4792:5029  {... */\n      pop\n        /* \"contracts/KipuBank.sol\":3715:3716  _ */\n      pop\n      pop\n      pop\n        /* \"contracts/KipuBank.sol\":6846:7321  function deposit() external payable nonZeroAmountToDeposit(msg.value) verifyBankCapacity(s_totalDeposits, s_bankCap, msg.value) {... */\n      pop\n      jump\t// out\n        /* \"contracts/KipuBank.sol\":8296:8560  function _safeTransfer(address to, uint256 amount) private verifyFinalAddress(to) {... */\n    tag_64:\n        /* \"contracts/KipuBank.sol\":8374:8376  to */\n      dup2\n        /* \"contracts/KipuBank.sol\":8389:8401  bool success */\n      0x00\n        /* \"contracts/KipuBank.sol\":8403:8425  bytes memory mesgError */\n      dup1\n        /* \"contracts/KipuBank.sol\":8437:8439  to */\n      dup5\n        /* \"contracts/KipuBank.sol\":8429:8445  payable(to).call */\n      0xffffffffffffffffffffffffffffffffffffffff\n      and\n        /* \"contracts/KipuBank.sol\":8453:8459  amount */\n      dup5\n        /* \"contracts/KipuBank.sol\":8429:8464  payable(to).call{value: amount}(\"\") */\n      mload(0x40)\n      tag_85\n      swap1\n      tag_86\n      jump\t// in\n    tag_85:\n      0x00\n      mload(0x40)\n      dup1\n      dup4\n      sub\n      dup2\n      dup6\n      dup8\n      gas\n      call\n      swap3\n      pop\n      pop\n      pop\n      returndatasize\n      dup1\n      0x00\n      dup2\n      eq\n      tag_89\n      jumpi\n      mload(0x40)\n      swap2\n      pop\n      and(add(returndatasize, 0x3f), not(0x1f))\n      dup3\n      add\n      0x40\n      mstore\n      returndatasize\n      dup3\n      mstore\n      returndatasize\n      0x00\n      0x20\n      dup5\n      add\n      returndatacopy\n      jump(tag_88)\n    tag_89:\n      0x60\n      swap2\n      pop\n    tag_88:\n      pop\n        /* \"contracts/KipuBank.sol\":8388:8464  (bool success, bytes memory mesgError) = payable(to).call{value: amount}(\"\") */\n      swap2\n      pop\n      swap2\n      pop\n        /* \"contracts/KipuBank.sol\":8479:8486  success */\n      dup2\n        /* \"contracts/KipuBank.sol\":8474:8554  if (!success) {... */\n      tag_90\n      jumpi\n        /* \"contracts/KipuBank.sol\":8533:8542  mesgError */\n      dup1\n        /* \"contracts/KipuBank.sol\":8509:8543  KipuBank_TransferFailed(mesgError) */\n      mload(0x40)\n      0x9df665e200000000000000000000000000000000000000000000000000000000\n      dup2\n      mstore\n      0x04\n      add\n      tag_91\n      swap2\n      swap1\n      tag_92\n      jump\t// in\n    tag_91:\n      mload(0x40)\n      dup1\n      swap2\n      sub\n      swap1\n      revert\n        /* \"contracts/KipuBank.sol\":8474:8554  if (!success) {... */\n    tag_90:\n        /* \"contracts/KipuBank.sol\":8378:8560  {... */\n      pop\n      pop\n        /* \"contracts/KipuBank.sol\":5836:5849  _finalAddress */\n      dup1\n        /* \"contracts/KipuBank.sol\":5822:5849  msg.sender != _finalAddress */\n      0xffffffffffffffffffffffffffffffffffffffff\n      and\n        /* \"contracts/KipuBank.sol\":5822:5832  msg.sender */\n      caller\n        /* \"contracts/KipuBank.sol\":5822:5849  msg.sender != _finalAddress */\n      0xffffffffffffffffffffffffffffffffffffffff\n      and\n      eq\n        /* \"contracts/KipuBank.sol\":5818:5954  if (msg.sender != _finalAddress)... */\n      tag_93\n      jumpi\n        /* \"contracts/KipuBank.sol\":5870:5954  KipuBank_TransferFailed(\"La direccion del usuario cambio durante el retiro de ETH.\") */\n      mload(0x40)\n      0x9df665e200000000000000000000000000000000000000000000000000000000\n      dup2\n      mstore\n      0x04\n      add\n      tag_94\n      swap1\n      tag_95\n      jump\t// in\n    tag_94:\n      mload(0x40)\n      dup1\n      swap2\n      sub\n      swap1\n      revert\n        /* \"contracts/KipuBank.sol\":5818:5954  if (msg.sender != _finalAddress)... */\n    tag_93:\n        /* \"contracts/KipuBank.sol\":8389:8401  bool success */\n      0x00\n        /* \"contracts/KipuBank.sol\":8403:8425  bytes memory mesgError */\n      dup1\n        /* \"contracts/KipuBank.sol\":8437:8439  to */\n      dup5\n        /* \"contracts/KipuBank.sol\":8429:8445  payable(to).call */\n      0xffffffffffffffffffffffffffffffffffffffff\n      and\n        /* \"contracts/KipuBank.sol\":8453:8459  amount */\n      dup5\n        /* \"contracts/KipuBank.sol\":8429:8464  payable(to).call{value: amount}(\"\") */\n      mload(0x40)\n      tag_97\n      swap1\n      tag_86\n      jump\t// in\n    tag_97:\n      0x00\n      mload(0x40)\n      dup1\n      dup4\n      sub\n      dup2\n      dup6\n      dup8\n      gas\n      call\n      swap3\n      pop\n      pop\n      pop\n      returndatasize\n      dup1\n      0x00\n      dup2\n      eq\n      tag_100\n      jumpi\n      mload(0x40)\n      swap2\n      pop\n      and(add(returndatasize, 0x3f), not(0x1f))\n      dup3\n      add\n      0x40\n      mstore\n      returndatasize\n      dup3\n      mstore\n      returndatasize\n      0x00\n      0x20\n      dup5\n      add\n      returndatacopy\n      jump(tag_99)\n    tag_100:\n      0x60\n      swap2\n      pop\n    tag_99:\n      pop\n        /* \"contracts/KipuBank.sol\":8388:8464  (bool success, bytes memory mesgError) = payable(to).call{value: amount}(\"\") */\n      swap2\n      pop\n      swap2\n      pop\n        /* \"contracts/KipuBank.sol\":8479:8486  success */\n      dup2\n        /* \"contracts/KipuBank.sol\":8474:8554  if (!success) {... */\n      tag_101\n      jumpi\n        /* \"contracts/KipuBank.sol\":8533:8542  mesgError */\n      dup1\n        /* \"contracts/KipuBank.sol\":8509:8543  KipuBank_TransferFailed(mesgError) */\n      mload(0x40)\n      0x9df665e200000000000000000000000000000000000000000000000000000000\n      dup2\n      mstore\n      0x04\n      add\n      tag_102\n      swap2\n      swap1\n      tag_92\n      jump\t// in\n    tag_102:\n      mload(0x40)\n      dup1\n      swap2\n      sub\n      swap1\n      revert\n        /* \"contracts/KipuBank.sol\":8474:8554  if (!success) {... */\n    tag_101:\n        /* \"contracts/KipuBank.sol\":8378:8560  {... */\n      pop\n      pop\n        /* \"contracts/KipuBank.sol\":8296:8560  function _safeTransfer(address to, uint256 amount) private verifyFinalAddress(to) {... */\n      pop\n      pop\n      pop\n      jump\t// out\n        /* \"#utility.yul\":88:205   */\n    tag_104:\n        /* \"#utility.yul\":197:198   */\n      0x00\n        /* \"#utility.yul\":194:195   */\n      dup1\n        /* \"#utility.yul\":187:199   */\n      revert\n        /* \"#utility.yul\":334:460   */\n    tag_106:\n        /* \"#utility.yul\":371:378   */\n      0x00\n        /* \"#utility.yul\":411:453   */\n      0xffffffffffffffffffffffffffffffffffffffff\n        /* \"#utility.yul\":404:409   */\n      dup3\n        /* \"#utility.yul\":400:454   */\n      and\n        /* \"#utility.yul\":389:454   */\n      swap1\n      pop\n        /* \"#utility.yul\":334:460   */\n      swap2\n      swap1\n      pop\n      jump\t// out\n        /* \"#utility.yul\":466:562   */\n    tag_107:\n        /* \"#utility.yul\":503:510   */\n      0x00\n        /* \"#utility.yul\":532:556   */\n      tag_131\n        /* \"#utility.yul\":550:555   */\n      dup3\n        /* \"#utility.yul\":532:556   */\n      tag_106\n      jump\t// in\n    tag_131:\n        /* \"#utility.yul\":521:556   */\n      swap1\n      pop\n        /* \"#utility.yul\":466:562   */\n      swap2\n      swap1\n      pop\n      jump\t// out\n        /* \"#utility.yul\":568:690   */\n    tag_108:\n        /* \"#utility.yul\":641:665   */\n      tag_133\n        /* \"#utility.yul\":659:664   */\n      dup2\n        /* \"#utility.yul\":641:665   */\n      tag_107\n      jump\t// in\n    tag_133:\n        /* \"#utility.yul\":634:639   */\n      dup2\n        /* \"#utility.yul\":631:666   */\n      eq\n        /* \"#utility.yul\":621:684   */\n      tag_134\n      jumpi\n        /* \"#utility.yul\":680:681   */\n      0x00\n        /* \"#utility.yul\":677:678   */\n      dup1\n        /* \"#utility.yul\":670:682   */\n      revert\n        /* \"#utility.yul\":621:684   */\n    tag_134:\n        /* \"#utility.yul\":568:690   */\n      pop\n      jump\t// out\n        /* \"#utility.yul\":696:835   */\n    tag_109:\n        /* \"#utility.yul\":742:747   */\n      0x00\n        /* \"#utility.yul\":780:786   */\n      dup2\n        /* \"#utility.yul\":767:787   */\n      calldataload\n        /* \"#utility.yul\":758:787   */\n      swap1\n      pop\n        /* \"#utility.yul\":796:829   */\n      tag_136\n        /* \"#utility.yul\":823:828   */\n      dup2\n        /* \"#utility.yul\":796:829   */\n      tag_108\n      jump\t// in\n    tag_136:\n        /* \"#utility.yul\":696:835   */\n      swap3\n      swap2\n      pop\n      pop\n      jump\t// out\n        /* \"#utility.yul\":841:1170   */\n    tag_15:\n        /* \"#utility.yul\":900:906   */\n      0x00\n        /* \"#utility.yul\":949:951   */\n      0x20\n        /* \"#utility.yul\":937:946   */\n      dup3\n        /* \"#utility.yul\":928:935   */\n      dup5\n        /* \"#utility.yul\":924:947   */\n      sub\n        /* \"#utility.yul\":920:952   */\n      slt\n        /* \"#utility.yul\":917:1036   */\n      iszero\n      tag_138\n      jumpi\n        /* \"#utility.yul\":955:1034   */\n      tag_139\n      tag_104\n      jump\t// in\n    tag_139:\n        /* \"#utility.yul\":917:1036   */\n    tag_138:\n        /* \"#utility.yul\":1075:1076   */\n      0x00\n        /* \"#utility.yul\":1100:1153   */\n      tag_140\n        /* \"#utility.yul\":1145:1152   */\n      dup5\n        /* \"#utility.yul\":1136:1142   */\n      dup3\n        /* \"#utility.yul\":1125:1134   */\n      dup6\n        /* \"#utility.yul\":1121:1143   */\n      add\n        /* \"#utility.yul\":1100:1153   */\n      tag_109\n      jump\t// in\n    tag_140:\n        /* \"#utility.yul\":1090:1153   */\n      swap2\n      pop\n        /* \"#utility.yul\":1046:1163   */\n      pop\n        /* \"#utility.yul\":841:1170   */\n      swap3\n      swap2\n      pop\n      pop\n      jump\t// out\n        /* \"#utility.yul\":1176:1253   */\n    tag_110:\n        /* \"#utility.yul\":1213:1220   */\n      0x00\n        /* \"#utility.yul\":1242:1247   */\n      dup2\n        /* \"#utility.yul\":1231:1247   */\n      swap1\n      pop\n        /* \"#utility.yul\":1176:1253   */\n      swap2\n      swap1\n      pop\n      jump\t// out\n        /* \"#utility.yul\":1259:1377   */\n    tag_111:\n        /* \"#utility.yul\":1346:1370   */\n      tag_143\n        /* \"#utility.yul\":1364:1369   */\n      dup2\n        /* \"#utility.yul\":1346:1370   */\n      tag_110\n      jump\t// in\n    tag_143:\n        /* \"#utility.yul\":1341:1344   */\n      dup3\n        /* \"#utility.yul\":1334:1371   */\n      mstore\n        /* \"#utility.yul\":1259:1377   */\n      pop\n      pop\n      jump\t// out\n        /* \"#utility.yul\":1383:1605   */\n    tag_18:\n        /* \"#utility.yul\":1476:1480   */\n      0x00\n        /* \"#utility.yul\":1514:1516   */\n      0x20\n        /* \"#utility.yul\":1503:1512   */\n      dup3\n        /* \"#utility.yul\":1499:1517   */\n      add\n        /* \"#utility.yul\":1491:1517   */\n      swap1\n      pop\n        /* \"#utility.yul\":1527:1598   */\n      tag_145\n        /* \"#utility.yul\":1595:1596   */\n      0x00\n        /* \"#utility.yul\":1584:1593   */\n      dup4\n        /* \"#utility.yul\":1580:1597   */\n      add\n        /* \"#utility.yul\":1571:1577   */\n      dup5\n        /* \"#utility.yul\":1527:1598   */\n      tag_111\n      jump\t// in\n    tag_145:\n        /* \"#utility.yul\":1383:1605   */\n      swap3\n      swap2\n      pop\n      pop\n      jump\t// out\n        /* \"#utility.yul\":1611:1733   */\n    tag_112:\n        /* \"#utility.yul\":1684:1708   */\n      tag_147\n        /* \"#utility.yul\":1702:1707   */\n      dup2\n        /* \"#utility.yul\":1684:1708   */\n      tag_110\n      jump\t// in\n    tag_147:\n        /* \"#utility.yul\":1677:1682   */\n      dup2\n        /* \"#utility.yul\":1674:1709   */\n      eq\n        /* \"#utility.yul\":1664:1727   */\n      tag_148\n      jumpi\n        /* \"#utility.yul\":1723:1724   */\n      0x00\n        /* \"#utility.yul\":1720:1721   */\n      dup1\n        /* \"#utility.yul\":1713:1725   */\n      revert\n        /* \"#utility.yul\":1664:1727   */\n    tag_148:\n        /* \"#utility.yul\":1611:1733   */\n      pop\n      jump\t// out\n        /* \"#utility.yul\":1739:1878   */\n    tag_113:\n        /* \"#utility.yul\":1785:1790   */\n      0x00\n        /* \"#utility.yul\":1823:1829   */\n      dup2\n        /* \"#utility.yul\":1810:1830   */\n      calldataload\n        /* \"#utility.yul\":1801:1830   */\n      swap1\n      pop\n        /* \"#utility.yul\":1839:1872   */\n      tag_150\n        /* \"#utility.yul\":1866:1871   */\n      dup2\n        /* \"#utility.yul\":1839:1872   */\n      tag_112\n      jump\t// in\n    tag_150:\n        /* \"#utility.yul\":1739:1878   */\n      swap3\n      swap2\n      pop\n      pop\n      jump\t// out\n        /* \"#utility.yul\":1884:2213   */\n    tag_21:\n        /* \"#utility.yul\":1943:1949   */\n      0x00\n        /* \"#utility.yul\":1992:1994   */\n      0x20\n        /* \"#utility.yul\":1980:1989   */\n      dup3\n        /* \"#utility.yul\":1971:1978   */\n      dup5\n        /* \"#utility.yul\":1967:1990   */\n      sub\n        /* \"#utility.yul\":1963:1995   */\n      slt\n        /* \"#utility.yul\":1960:2079   */\n      iszero\n      tag_152\n      jumpi\n        /* \"#utility.yul\":1998:2077   */\n      tag_153\n      tag_104\n      jump\t// in\n    tag_153:\n        /* \"#utility.yul\":1960:2079   */\n    tag_152:\n        /* \"#utility.yul\":2118:2119   */\n      0x00\n        /* \"#utility.yul\":2143:2196   */\n      tag_154\n        /* \"#utility.yul\":2188:2195   */\n      dup5\n        /* \"#utility.yul\":2179:2185   */\n      dup3\n        /* \"#utility.yul\":2168:2177   */\n      dup6\n        /* \"#utility.yul\":2164:2186   */\n      add\n        /* \"#utility.yul\":2143:2196   */\n      tag_113\n      jump\t// in\n    tag_154:\n        /* \"#utility.yul\":2133:2196   */\n      swap2\n      pop\n        /* \"#utility.yul\":2089:2206   */\n      pop\n        /* \"#utility.yul\":1884:2213   */\n      swap3\n      swap2\n      pop\n      pop\n      jump\t// out\n        /* \"#utility.yul\":2219:2772   */\n    tag_40:\n        /* \"#utility.yul\":2396:2400   */\n      0x00\n        /* \"#utility.yul\":2434:2437   */\n      0x80\n        /* \"#utility.yul\":2423:2432   */\n      dup3\n        /* \"#utility.yul\":2419:2438   */\n      add\n        /* \"#utility.yul\":2411:2438   */\n      swap1\n      pop\n        /* \"#utility.yul\":2448:2519   */\n      tag_156\n        /* \"#utility.yul\":2516:2517   */\n      0x00\n        /* \"#utility.yul\":2505:2514   */\n      dup4\n        /* \"#utility.yul\":2501:2518   */\n      add\n        /* \"#utility.yul\":2492:2498   */\n      dup8\n        /* \"#utility.yul\":2448:2519   */\n      tag_111\n      jump\t// in\n    tag_156:\n        /* \"#utility.yul\":2529:2601   */\n      tag_157\n        /* \"#utility.yul\":2597:2599   */\n      0x20\n        /* \"#utility.yul\":2586:2595   */\n      dup4\n        /* \"#utility.yul\":2582:2600   */\n      add\n        /* \"#utility.yul\":2573:2579   */\n      dup7\n        /* \"#utility.yul\":2529:2601   */\n      tag_111\n      jump\t// in\n    tag_157:\n        /* \"#utility.yul\":2611:2683   */\n      tag_158\n        /* \"#utility.yul\":2679:2681   */\n      0x40\n        /* \"#utility.yul\":2668:2677   */\n      dup4\n        /* \"#utility.yul\":2664:2682   */\n      add\n        /* \"#utility.yul\":2655:2661   */\n      dup6\n        /* \"#utility.yul\":2611:2683   */\n      tag_111\n      jump\t// in\n    tag_158:\n        /* \"#utility.yul\":2693:2765   */\n      tag_159\n        /* \"#utility.yul\":2761:2763   */\n      0x60\n        /* \"#utility.yul\":2750:2759   */\n      dup4\n        /* \"#utility.yul\":2746:2764   */\n      add\n        /* \"#utility.yul\":2737:2743   */\n      dup5\n        /* \"#utility.yul\":2693:2765   */\n      tag_111\n      jump\t// in\n    tag_159:\n        /* \"#utility.yul\":2219:2772   */\n      swap6\n      swap5\n      pop\n      pop\n      pop\n      pop\n      pop\n      jump\t// out\n        /* \"#utility.yul\":2778:3110   */\n    tag_56:\n        /* \"#utility.yul\":2899:2903   */\n      0x00\n        /* \"#utility.yul\":2937:2939   */\n      0x40\n        /* \"#utility.yul\":2926:2935   */\n      dup3\n        /* \"#utility.yul\":2922:2940   */\n      add\n        /* \"#utility.yul\":2914:2940   */\n      swap1\n      pop\n        /* \"#utility.yul\":2950:3021   */\n      tag_161\n        /* \"#utility.yul\":3018:3019   */\n      0x00\n        /* \"#utility.yul\":3007:3016   */\n      dup4\n        /* \"#utility.yul\":3003:3020   */\n      add\n        /* \"#utility.yul\":2994:3000   */\n      dup6\n        /* \"#utility.yul\":2950:3021   */\n      tag_111\n      jump\t// in\n    tag_161:\n        /* \"#utility.yul\":3031:3103   */\n      tag_162\n        /* \"#utility.yul\":3099:3101   */\n      0x20\n        /* \"#utility.yul\":3088:3097   */\n      dup4\n        /* \"#utility.yul\":3084:3102   */\n      add\n        /* \"#utility.yul\":3075:3081   */\n      dup5\n        /* \"#utility.yul\":3031:3103   */\n      tag_111\n      jump\t// in\n    tag_162:\n        /* \"#utility.yul\":2778:3110   */\n      swap4\n      swap3\n      pop\n      pop\n      pop\n      jump\t// out\n        /* \"#utility.yul\":3116:3296   */\n    tag_114:\n        /* \"#utility.yul\":3164:3241   */\n      0x4e487b7100000000000000000000000000000000000000000000000000000000\n        /* \"#utility.yul\":3161:3162   */\n      0x00\n        /* \"#utility.yul\":3154:3242   */\n      mstore\n        /* \"#utility.yul\":3261:3265   */\n      0x11\n        /* \"#utility.yul\":3258:3259   */\n      0x04\n        /* \"#utility.yul\":3251:3266   */\n      mstore\n        /* \"#utility.yul\":3285:3289   */\n      0x24\n        /* \"#utility.yul\":3282:3283   */\n      0x00\n        /* \"#utility.yul\":3275:3290   */\n      revert\n        /* \"#utility.yul\":3302:3496   */\n    tag_59:\n        /* \"#utility.yul\":3342:3346   */\n      0x00\n        /* \"#utility.yul\":3362:3382   */\n      tag_165\n        /* \"#utility.yul\":3380:3381   */\n      dup3\n        /* \"#utility.yul\":3362:3382   */\n      tag_110\n      jump\t// in\n    tag_165:\n        /* \"#utility.yul\":3357:3382   */\n      swap2\n      pop\n        /* \"#utility.yul\":3396:3416   */\n      tag_166\n        /* \"#utility.yul\":3414:3415   */\n      dup4\n        /* \"#utility.yul\":3396:3416   */\n      tag_110\n      jump\t// in\n    tag_166:\n        /* \"#utility.yul\":3391:3416   */\n      swap3\n      pop\n        /* \"#utility.yul\":3440:3441   */\n      dup3\n        /* \"#utility.yul\":3437:3438   */\n      dup3\n        /* \"#utility.yul\":3433:3442   */\n      sub\n        /* \"#utility.yul\":3425:3442   */\n      swap1\n      pop\n        /* \"#utility.yul\":3464:3465   */\n      dup2\n        /* \"#utility.yul\":3458:3462   */\n      dup2\n        /* \"#utility.yul\":3455:3466   */\n      gt\n        /* \"#utility.yul\":3452:3489   */\n      iszero\n      tag_167\n      jumpi\n        /* \"#utility.yul\":3469:3487   */\n      tag_168\n      tag_114\n      jump\t// in\n    tag_168:\n        /* \"#utility.yul\":3452:3489   */\n    tag_167:\n        /* \"#utility.yul\":3302:3496   */\n      swap3\n      swap2\n      pop\n      pop\n      jump\t// out\n        /* \"#utility.yul\":3502:3735   */\n    tag_62:\n        /* \"#utility.yul\":3541:3544   */\n      0x00\n        /* \"#utility.yul\":3564:3588   */\n      tag_170\n        /* \"#utility.yul\":3582:3587   */\n      dup3\n        /* \"#utility.yul\":3564:3588   */\n      tag_110\n      jump\t// in\n    tag_170:\n        /* \"#utility.yul\":3555:3588   */\n      swap2\n      pop\n        /* \"#utility.yul\":3610:3676   */\n      0xffffffffffffffffffffffffffffffffffffffffffffffffffffffffffffffff\n        /* \"#utility.yul\":3603:3608   */\n      dup3\n        /* \"#utility.yul\":3600:3677   */\n      sub\n        /* \"#utility.yul\":3597:3700   */\n      tag_171\n      jumpi\n        /* \"#utility.yul\":3680:3698   */\n      tag_172\n      tag_114\n      jump\t// in\n    tag_172:\n        /* \"#utility.yul\":3597:3700   */\n    tag_171:\n        /* \"#utility.yul\":3727:3728   */\n      0x01\n        /* \"#utility.yul\":3720:3725   */\n      dup3\n        /* \"#utility.yul\":3716:3729   */\n      add\n        /* \"#utility.yul\":3709:3729   */\n      swap1\n      pop\n        /* \"#utility.yul\":3502:3735   */\n      swap2\n      swap1\n      pop\n      jump\t// out\n        /* \"#utility.yul\":3741:3932   */\n    tag_73:\n        /* \"#utility.yul\":3781:3784   */\n      0x00\n        /* \"#utility.yul\":3800:3820   */\n      tag_174\n        /* \"#utility.yul\":3818:3819   */\n      dup3\n        /* \"#utility.yul\":3800:3820   */\n      tag_110\n      jump\t// in\n    tag_174:\n        /* \"#utility.yul\":3795:3820   */\n      swap2\n      pop\n        /* \"#utility.yul\":3834:3854   */\n      tag_175\n        /* \"#utility.yul\":3852:3853   */\n      dup4\n        /* \"#utility.yul\":3834:3854   */\n      tag_110\n      jump\t// in\n    tag_175:\n        /* \"#utility.yul\":3829:3854   */\n      swap3\n      pop\n        /* \"#utility.yul\":3877:3878   */\n      dup3\n        /* \"#utility.yul\":3874:3875   */\n      dup3\n        /* \"#utility.yul\":3870:3879   */\n      add\n        /* \"#utility.yul\":3863:3879   */\n      swap1\n      pop\n        /* \"#utility.yul\":3898:3901   */\n      dup1\n        /* \"#utility.yul\":3895:3896   */\n      dup3\n        /* \"#utility.yul\":3892:3902   */\n      gt\n        /* \"#utility.yul\":3889:3925   */\n      iszero\n      tag_176\n      jumpi\n        /* \"#utility.yul\":3905:3923   */\n      tag_177\n      tag_114\n      jump\t// in\n    tag_177:\n        /* \"#utility.yul\":3889:3925   */\n    tag_176:\n        /* \"#utility.yul\":3741:3932   */\n      swap3\n      swap2\n      pop\n      pop\n      jump\t// out\n        /* \"#utility.yul\":3938:4085   */\n    tag_115:\n        /* \"#utility.yul\":4039:4050   */\n      0x00\n        /* \"#utility.yul\":4076:4079   */\n      dup2\n        /* \"#utility.yul\":4061:4079   */\n      swap1\n      pop\n        /* \"#utility.yul\":3938:4085   */\n      swap3\n      swap2\n      pop\n      pop\n      jump\t// out\n        /* \"#utility.yul\":4091:4205   */\n    tag_116:\n      pop\n      jump\t// out\n        /* \"#utility.yul\":4211:4609   */\n    tag_117:\n        /* \"#utility.yul\":4370:4373   */\n      0x00\n        /* \"#utility.yul\":4391:4474   */\n      tag_181\n        /* \"#utility.yul\":4472:4473   */\n      0x00\n        /* \"#utility.yul\":4467:4470   */\n      dup4\n        /* \"#utility.yul\":4391:4474   */\n      tag_115\n      jump\t// in\n    tag_181:\n        /* \"#utility.yul\":4384:4474   */\n      swap2\n      pop\n        /* \"#utility.yul\":4483:4576   */\n      tag_182\n        /* \"#utility.yul\":4572:4575   */\n      dup3\n        /* \"#utility.yul\":4483:4576   */\n      tag_116\n      jump\t// in\n    tag_182:\n        /* \"#utility.yul\":4601:4602   */\n      0x00\n        /* \"#utility.yul\":4596:4599   */\n      dup3\n        /* \"#utility.yul\":4592:4603   */\n      add\n        /* \"#utility.yul\":4585:4603   */\n      swap1\n      pop\n        /* \"#utility.yul\":4211:4609   */\n      swap2\n      swap1\n      pop\n      jump\t// out\n        /* \"#utility.yul\":4615:4994   */\n    tag_86:\n        /* \"#utility.yul\":4799:4802   */\n      0x00\n        /* \"#utility.yul\":4821:4968   */\n      tag_184\n        /* \"#utility.yul\":4964:4967   */\n      dup3\n        /* \"#utility.yul\":4821:4968   */\n      tag_117\n      jump\t// in\n    tag_184:\n        /* \"#utility.yul\":4814:4968   */\n      swap2\n      pop\n        /* \"#utility.yul\":4985:4988   */\n      dup2\n        /* \"#utility.yul\":4978:4988   */\n      swap1\n      pop\n        /* \"#utility.yul\":4615:4994   */\n      swap2\n      swap1\n      pop\n      jump\t// out\n        /* \"#utility.yul\":5000:5098   */\n    tag_118:\n        /* \"#utility.yul\":5051:5057   */\n      0x00\n        /* \"#utility.yul\":5085:5090   */\n      dup2\n        /* \"#utility.yul\":5079:5091   */\n      mload\n        /* \"#utility.yul\":5069:5091   */\n      swap1\n      pop\n        /* \"#utility.yul\":5000:5098   */\n      swap2\n      swap1\n      pop\n      jump\t// out\n        /* \"#utility.yul\":5104:5272   */\n    tag_119:\n        /* \"#utility.yul\":5187:5198   */\n      0x00\n        /* \"#utility.yul\":5221:5227   */\n      dup3\n        /* \"#utility.yul\":5216:5219   */\n      dup3\n        /* \"#utility.yul\":5209:5228   */\n      mstore\n        /* \"#utility.yul\":5261:5265   */\n      0x20\n        /* \"#utility.yul\":5256:5259   */\n      dup3\n        /* \"#utility.yul\":5252:5266   */\n      add\n        /* \"#utility.yul\":5237:5266   */\n      swap1\n      pop\n        /* \"#utility.yul\":5104:5272   */\n      swap3\n      swap2\n      pop\n      pop\n      jump\t// out\n        /* \"#utility.yul\":5278:5417   */\n    tag_120:\n        /* \"#utility.yul\":5367:5373   */\n      dup3\n        /* \"#utility.yul\":5362:5365   */\n      dup2\n        /* \"#utility.yul\":5357:5360   */\n      dup4\n        /* \"#utility.yul\":5351:5374   */\n      mcopy\n        /* \"#utility.yul\":5408:5409   */\n      0x00\n        /* \"#utility.yul\":5399:5405   */\n      dup4\n        /* \"#utility.yul\":5394:5397   */\n      dup4\n        /* \"#utility.yul\":5390:5406   */\n      add\n        /* \"#utility.yul\":5383:5410   */\n      mstore\n        /* \"#utility.yul\":5278:5417   */\n      pop\n      pop\n      pop\n      jump\t// out\n        /* \"#utility.yul\":5423:5525   */\n    tag_121:\n        /* \"#utility.yul\":5464:5470   */\n      0x00\n        /* \"#utility.yul\":5515:5517   */\n      0x1f\n        /* \"#utility.yul\":5511:5518   */\n      not\n        /* \"#utility.yul\":5506:5508   */\n      0x1f\n        /* \"#utility.yul\":5499:5504   */\n      dup4\n        /* \"#utility.yul\":5495:5509   */\n      add\n        /* \"#utility.yul\":5491:5519   */\n      and\n        /* \"#utility.yul\":5481:5519   */\n      swap1\n      pop\n        /* \"#utility.yul\":5423:5525   */\n      swap2\n      swap1\n      pop\n      jump\t// out\n        /* \"#utility.yul\":5531:5904   */\n    tag_122:\n        /* \"#utility.yul\":5617:5620   */\n      0x00\n        /* \"#utility.yul\":5645:5683   */\n      tag_190\n        /* \"#utility.yul\":5677:5682   */\n      dup3\n        /* \"#utility.yul\":5645:5683   */\n      tag_118\n      jump\t// in\n    tag_190:\n        /* \"#utility.yul\":5699:5769   */\n      tag_191\n        /* \"#utility.yul\":5762:5768   */\n      dup2\n        /* \"#utility.yul\":5757:5760   */\n      dup6\n        /* \"#utility.yul\":5699:5769   */\n      tag_119\n      jump\t// in\n    tag_191:\n        /* \"#utility.yul\":5692:5769   */\n      swap4\n      pop\n        /* \"#utility.yul\":5778:5843   */\n      tag_192\n        /* \"#utility.yul\":5836:5842   */\n      dup2\n        /* \"#utility.yul\":5831:5834   */\n      dup6\n        /* \"#utility.yul\":5824:5828   */\n      0x20\n        /* \"#utility.yul\":5817:5822   */\n      dup7\n        /* \"#utility.yul\":5813:5829   */\n      add\n        /* \"#utility.yul\":5778:5843   */\n      tag_120\n      jump\t// in\n    tag_192:\n        /* \"#utility.yul\":5868:5897   */\n      tag_193\n        /* \"#utility.yul\":5890:5896   */\n      dup2\n        /* \"#utility.yul\":5868:5897   */\n      tag_121\n      jump\t// in\n    tag_193:\n        /* \"#utility.yul\":5863:5866   */\n      dup5\n        /* \"#utility.yul\":5859:5898   */\n      add\n        /* \"#utility.yul\":5852:5898   */\n      swap2\n      pop\n        /* \"#utility.yul\":5621:5904   */\n      pop\n        /* \"#utility.yul\":5531:5904   */\n      swap3\n      swap2\n      pop\n      pop\n      jump\t// out\n        /* \"#utility.yul\":5910:6219   */\n    tag_92:\n        /* \"#utility.yul\":6021:6025   */\n      0x00\n        /* \"#utility.yul\":6059:6061   */\n      0x20\n        /* \"#utility.yul\":6048:6057   */\n      dup3\n        /* \"#utility.yul\":6044:6062   */\n      add\n        /* \"#utility.yul\":6036:6062   */\n      swap1\n      pop\n        /* \"#utility.yul\":6108:6117   */\n      dup2\n        /* \"#utility.yul\":6102:6106   */\n      dup2\n        /* \"#utility.yul\":6098:6118   */\n      sub\n        /* \"#utility.yul\":6094:6095   */\n      0x00\n        /* \"#utility.yul\":6083:6092   */\n      dup4\n        /* \"#utility.yul\":6079:6096   */\n      add\n        /* \"#utility.yul\":6072:6119   */\n      mstore\n        /* \"#utility.yul\":6136:6212   */\n      tag_195\n        /* \"#utility.yul\":6207:6211   */\n      dup2\n        /* \"#utility.yul\":6198:6204   */\n      dup5\n        /* \"#utility.yul\":6136:6212   */\n      tag_122\n      jump\t// in\n    tag_195:\n        /* \"#utility.yul\":6128:6212   */\n      swap1\n      pop\n        /* \"#utility.yul\":5910:6219   */\n      swap3\n      swap2\n      pop\n      pop\n      jump\t// out\n        /* \"#utility.yul\":6225:6469   */\n    tag_123:\n        /* \"#utility.yul\":6365:6399   */\n      0x4c6120646972656363696f6e2064656c207573756172696f2063616d62696f20\n        /* \"#utility.yul\":6361:6362   */\n      0x00\n        /* \"#utility.yul\":6353:6359   */\n      dup3\n        /* \"#utility.yul\":6349:6363   */\n      add\n        /* \"#utility.yul\":6342:6400   */\n      mstore\n        /* \"#utility.yul\":6434:6461   */\n      0x647572616e746520656c2072657469726f206465204554482e00000000000000\n        /* \"#utility.yul\":6429:6431   */\n      0x20\n        /* \"#utility.yul\":6421:6427   */\n      dup3\n        /* \"#utility.yul\":6417:6432   */\n      add\n        /* \"#utility.yul\":6410:6462   */\n      mstore\n        /* \"#utility.yul\":6225:6469   */\n      pop\n      jump\t// out\n        /* \"#utility.yul\":6475:6839   */\n    tag_124:\n        /* \"#utility.yul\":6616:6619   */\n      0x00\n        /* \"#utility.yul\":6637:6703   */\n      tag_198\n        /* \"#utility.yul\":6700:6702   */\n      0x39\n        /* \"#utility.yul\":6695:6698   */\n      dup4\n        /* \"#utility.yul\":6637:6703   */\n      tag_119\n      jump\t// in\n    tag_198:\n        /* \"#utility.yul\":6630:6703   */\n      swap2\n      pop\n        /* \"#utility.yul\":6712:6805   */\n      tag_199\n        /* \"#utility.yul\":6801:6804   */\n      dup3\n        /* \"#utility.yul\":6712:6805   */\n      tag_123\n      jump\t// in\n    tag_199:\n        /* \"#utility.yul\":6830:6832   */\n      0x40\n        /* \"#utility.yul\":6825:6828   */\n      dup3\n        /* \"#utility.yul\":6821:6833   */\n      add\n        /* \"#utility.yul\":6814:6833   */\n      swap1\n      pop\n        /* \"#utility.yul\":6475:6839   */\n      swap2\n      swap1\n      pop\n      jump\t// out\n        /* \"#utility.yul\":6845:7262   */\n    tag_95:\n        /* \"#utility.yul\":7010:7014   */\n      0x00\n        /* \"#utility.yul\":7048:7050   */\n      0x20\n        /* \"#utility.yul\":7037:7046   */\n      dup3\n        /* \"#utility.yul\":7033:7051   */\n      add\n        /* \"#utility.yul\":7025:7051   */\n      swap1\n      pop\n        /* \"#utility.yul\":7097:7106   */\n      dup2\n        /* \"#utility.yul\":7091:7095   */\n      dup2\n        /* \"#utility.yul\":7087:7107   */\n      sub\n        /* \"#utility.yul\":7083:7084   */\n      0x00\n        /* \"#utility.yul\":7072:7081   */\n      dup4\n        /* \"#utility.yul\":7068:7085   */\n      add\n        /* \"#utility.yul\":7061:7108   */\n      mstore\n        /* \"#utility.yul\":7125:7255   */\n      tag_201\n        /* \"#utility.yul\":7250:7254   */\n      dup2\n        /* \"#utility.yul\":7125:7255   */\n      tag_124\n      jump\t// in\n    tag_201:\n        /* \"#utility.yul\":7117:7255   */\n      swap1\n      pop\n        /* \"#utility.yul\":6845:7262   */\n      swap2\n      swap1\n      pop\n      jump\t// out\n\n    auxdata: 0xa2646970667358221220f33ad8d873f26e16ad258afbecfde62bb3a3bc03090ce6f75443b5894778ad7664736f6c634300081a0033\n}\n",
				"bytecode": {
					"linkReferences": {},
					"object": "60c060405234801561000f575f80fd5b50604051610e14380380610e1483398181016040528101906100319190610102565b805f810361006b576040517f0e45770000000000000000000000000000000000000000000000000000000000815260040160405180910390fd5b825f81036100a5576040517fdea6880b00000000000000000000000000000000000000000000000000000000815260040160405180910390fd5b8360a0818152505082608081815250505f80819055505f60018190555050505050610140565b5f80fd5b5f819050919050565b6100e1816100cf565b81146100eb575f80fd5b50565b5f815190506100fc816100d8565b92915050565b5f8060408385031215610118576101176100cb565b5b5f610125858286016100ee565b9250506020610136858286016100ee565b9150509250929050565b60805160a051610ca561016f5f395f8181610474015281816104a6015261054b01525f6104e50152610ca55ff3fe608060405260043610610085575f3560e01c8063b2343b1c11610058578063b2343b1c14610147578063c6e8e38c14610171578063c87a1ba21461019e578063cac2e25f146101c8578063d0e30db0146101f257610085565b806327e235e3146100895780632e1a7d4d146100c557806347734892146100e157806380ef10ed1461011d575b5f80fd5b348015610094575f80fd5b506100af60048036038101906100aa919061091b565b6101fc565b6040516100bc919061095e565b60405180910390f35b6100df60048036038101906100da91906109a1565b610211565b005b3480156100ec575f80fd5b506101076004803603810190610102919061091b565b61042c565b604051610114919061095e565b60405180910390f35b348015610128575f80fd5b50610131610472565b60405161013e919061095e565b60405180910390f35b348015610152575f80fd5b5061015b610496565b604051610168919061095e565b60405180910390f35b34801561017c575f80fd5b5061018561049c565b60405161019594939291906109cc565b60405180910390f35b3480156101a9575f80fd5b506101b26104e3565b6040516101bf919061095e565b60405180910390f35b3480156101d3575f80fd5b506101dc610507565b6040516101e9919061095e565b60405180910390f35b6101fa61050d565b005b6003602052805f5260405f205f915090505481565b805f810361024b576040517f0e45770000000000000000000000000000000000000000000000000000000000815260040160405180910390fd5b33828060035f8473ffffffffffffffffffffffffffffffffffffffff1673ffffffffffffffffffffffffffffffffffffffff1681526020019081526020015f2054101561030e578060035f8473ffffffffffffffffffffffffffffffffffffffff1673ffffffffffffffffffffffffffffffffffffffff1681526020019081526020015f20546040517f8963f2d7000000000000000000000000000000000000000000000000000000008152600401610305929190610a0f565b60405180910390fd5b8360035f3373ffffffffffffffffffffffffffffffffffffffff1673ffffffffffffffffffffffffffffffffffffffff1681526020019081526020015f205f82825461035a9190610a63565b92505081905550835f808282546103719190610a63565b9250508190555060025f81548092919061038a90610a96565b919050555061039933856106ed565b3373ffffffffffffffffffffffffffffffffffffffff167f751eed5275edf3e893242f216327249fcffb890ff19dbfdd0707ceed741726808560035f3373ffffffffffffffffffffffffffffffffffffffff1673ffffffffffffffffffffffffffffffffffffffff1681526020019081526020015f205460405161041e929190610a0f565b60405180910390a250505050565b5f60035f8373ffffffffffffffffffffffffffffffffffffffff1673ffffffffffffffffffffffffffffffffffffffff1681526020019081526020015f20549050919050565b7f000000000000000000000000000000000000000000000000000000000000000081565b60025481565b5f805f805f545f547f00000000000000000000000000000000000000000000000000000000000000006104cf9190610a63565b600154600254935093509350935090919293565b7f000000000000000000000000000000000000000000000000000000000000000081565b60015481565b345f8103610547576040517fdea6880b00000000000000000000000000000000000000000000000000000000815260040160405180910390fd5b5f547f0000000000000000000000000000000000000000000000000000000000000000345f81846105789190610add565b9050828111156105cc5781848461058f9190610a63565b6040517f17f8edba0000000000000000000000000000000000000000000000000000000081526004016105c3929190610a0f565b60405180910390fd5b3460035f3373ffffffffffffffffffffffffffffffffffffffff1673ffffffffffffffffffffffffffffffffffffffff1681526020019081526020015f205f8282546106189190610add565b92505081905550345f5461062c9190610add565b5f8082825461063b9190610add565b9250508190555060015f81548092919061065490610a96565b91905055503373ffffffffffffffffffffffffffffffffffffffff167f1464aebfd935135df103abcee703eee0165d4967204767e264b4cbb9a2a8a85a3460035f3373ffffffffffffffffffffffffffffffffffffffff1673ffffffffffffffffffffffffffffffffffffffff1681526020019081526020015f20546040516106de929190610a0f565b60405180910390a25050505050565b815f808473ffffffffffffffffffffffffffffffffffffffff168460405161071490610b3d565b5f6040518083038185875af1925050503d805f811461074e576040519150601f19603f3d011682016040523d82523d5f602084013e610753565b606091505b50915091508161079a57806040517f9df665e20000000000000000000000000000000000000000000000000000000081526004016107919190610bc1565b60405180910390fd5b50508073ffffffffffffffffffffffffffffffffffffffff163373ffffffffffffffffffffffffffffffffffffffff161461080a576040517f9df665e200000000000000000000000000000000000000000000000000000000815260040161080190610c51565b60405180910390fd5b5f808473ffffffffffffffffffffffffffffffffffffffff168460405161083090610b3d565b5f6040518083038185875af1925050503d805f811461086a576040519150601f19603f3d011682016040523d82523d5f602084013e61086f565b606091505b5091509150816108b657806040517f9df665e20000000000000000000000000000000000000000000000000000000081526004016108ad9190610bc1565b60405180910390fd5b5050505050565b5f80fd5b5f73ffffffffffffffffffffffffffffffffffffffff82169050919050565b5f6108ea826108c1565b9050919050565b6108fa816108e0565b8114610904575f80fd5b50565b5f81359050610915816108f1565b92915050565b5f602082840312156109305761092f6108bd565b5b5f61093d84828501610907565b91505092915050565b5f819050919050565b61095881610946565b82525050565b5f6020820190506109715f83018461094f565b92915050565b61098081610946565b811461098a575f80fd5b50565b5f8135905061099b81610977565b92915050565b5f602082840312156109b6576109b56108bd565b5b5f6109c38482850161098d565b91505092915050565b5f6080820190506109df5f83018761094f565b6109ec602083018661094f565b6109f9604083018561094f565b610a06606083018461094f565b95945050505050565b5f604082019050610a225f83018561094f565b610a2f602083018461094f565b9392505050565b7f4e487b71000000000000000000000000000000000000000000000000000000005f52601160045260245ffd5b5f610a6d82610946565b9150610a7883610946565b9250828203905081811115610a9057610a8f610a36565b5b92915050565b5f610aa082610946565b91507fffffffffffffffffffffffffffffffffffffffffffffffffffffffffffffffff8203610ad257610ad1610a36565b5b600182019050919050565b5f610ae782610946565b9150610af283610946565b9250828201905080821115610b0a57610b09610a36565b5b92915050565b5f81905092915050565b50565b5f610b285f83610b10565b9150610b3382610b1a565b5f82019050919050565b5f610b4782610b1d565b9150819050919050565b5f81519050919050565b5f82825260208201905092915050565b8281835e5f83830152505050565b5f601f19601f8301169050919050565b5f610b9382610b51565b610b9d8185610b5b565b9350610bad818560208601610b6b565b610bb681610b79565b840191505092915050565b5f6020820190508181035f830152610bd98184610b89565b905092915050565b7f4c6120646972656363696f6e2064656c207573756172696f2063616d62696f205f8201527f647572616e746520656c2072657469726f206465204554482e00000000000000602082015250565b5f610c3b603983610b5b565b9150610c4682610be1565b604082019050919050565b5f6020820190508181035f830152610c6881610c2f565b905091905056fea2646970667358221220f33ad8d873f26e16ad258afbecfde62bb3a3bc03090ce6f75443b5894778ad7664736f6c634300081a0033",
					"opcodes": "PUSH1 0xC0 PUSH1 0x40 MSTORE CALLVALUE DUP1 ISZERO PUSH2 0xF JUMPI PUSH0 DUP1 REVERT JUMPDEST POP PUSH1 0x40 MLOAD PUSH2 0xE14 CODESIZE SUB DUP1 PUSH2 0xE14 DUP4 CODECOPY DUP2 DUP2 ADD PUSH1 0x40 MSTORE DUP2 ADD SWAP1 PUSH2 0x31 SWAP2 SWAP1 PUSH2 0x102 JUMP JUMPDEST DUP1 PUSH0 DUP2 SUB PUSH2 0x6B JUMPI PUSH1 0x40 MLOAD PUSH32 0xE45770000000000000000000000000000000000000000000000000000000000 DUP2 MSTORE PUSH1 0x4 ADD PUSH1 0x40 MLOAD DUP1 SWAP2 SUB SWAP1 REVERT JUMPDEST DUP3 PUSH0 DUP2 SUB PUSH2 0xA5 JUMPI PUSH1 0x40 MLOAD PUSH32 0xDEA6880B00000000000000000000000000000000000000000000000000000000 DUP2 MSTORE PUSH1 0x4 ADD PUSH1 0x40 MLOAD DUP1 SWAP2 SUB SWAP1 REVERT JUMPDEST DUP4 PUSH1 0xA0 DUP2 DUP2 MSTORE POP POP DUP3 PUSH1 0x80 DUP2 DUP2 MSTORE POP POP PUSH0 DUP1 DUP2 SWAP1 SSTORE POP PUSH0 PUSH1 0x1 DUP2 SWAP1 SSTORE POP POP POP POP POP PUSH2 0x140 JUMP JUMPDEST PUSH0 DUP1 REVERT JUMPDEST PUSH0 DUP2 SWAP1 POP SWAP2 SWAP1 POP JUMP JUMPDEST PUSH2 0xE1 DUP2 PUSH2 0xCF JUMP JUMPDEST DUP2 EQ PUSH2 0xEB JUMPI PUSH0 DUP1 REVERT JUMPDEST POP JUMP JUMPDEST PUSH0 DUP2 MLOAD SWAP1 POP PUSH2 0xFC DUP2 PUSH2 0xD8 JUMP JUMPDEST SWAP3 SWAP2 POP POP JUMP JUMPDEST PUSH0 DUP1 PUSH1 0x40 DUP4 DUP6 SUB SLT ISZERO PUSH2 0x118 JUMPI PUSH2 0x117 PUSH2 0xCB JUMP JUMPDEST JUMPDEST PUSH0 PUSH2 0x125 DUP6 DUP3 DUP7 ADD PUSH2 0xEE JUMP JUMPDEST SWAP3 POP POP PUSH1 0x20 PUSH2 0x136 DUP6 DUP3 DUP7 ADD PUSH2 0xEE JUMP JUMPDEST SWAP2 POP POP SWAP3 POP SWAP3 SWAP1 POP JUMP JUMPDEST PUSH1 0x80 MLOAD PUSH1 0xA0 MLOAD PUSH2 0xCA5 PUSH2 0x16F PUSH0 CODECOPY PUSH0 DUP2 DUP2 PUSH2 0x474 ADD MSTORE DUP2 DUP2 PUSH2 0x4A6 ADD MSTORE PUSH2 0x54B ADD MSTORE PUSH0 PUSH2 0x4E5 ADD MSTORE PUSH2 0xCA5 PUSH0 RETURN INVALID PUSH1 0x80 PUSH1 0x40 MSTORE PUSH1 0x4 CALLDATASIZE LT PUSH2 0x85 JUMPI PUSH0 CALLDATALOAD PUSH1 0xE0 SHR DUP1 PUSH4 0xB2343B1C GT PUSH2 0x58 JUMPI DUP1 PUSH4 0xB2343B1C EQ PUSH2 0x147 JUMPI DUP1 PUSH4 0xC6E8E38C EQ PUSH2 0x171 JUMPI DUP1 PUSH4 0xC87A1BA2 EQ PUSH2 0x19E JUMPI DUP1 PUSH4 0xCAC2E25F EQ PUSH2 0x1C8 JUMPI DUP1 PUSH4 0xD0E30DB0 EQ PUSH2 0x1F2 JUMPI PUSH2 0x85 JUMP JUMPDEST DUP1 PUSH4 0x27E235E3 EQ PUSH2 0x89 JUMPI DUP1 PUSH4 0x2E1A7D4D EQ PUSH2 0xC5 JUMPI DUP1 PUSH4 0x47734892 EQ PUSH2 0xE1 JUMPI DUP1 PUSH4 0x80EF10ED EQ PUSH2 0x11D JUMPI JUMPDEST PUSH0 DUP1 REVERT JUMPDEST CALLVALUE DUP1 ISZERO PUSH2 0x94 JUMPI PUSH0 DUP1 REVERT JUMPDEST POP PUSH2 0xAF PUSH1 0x4 DUP1 CALLDATASIZE SUB DUP2 ADD SWAP1 PUSH2 0xAA SWAP2 SWAP1 PUSH2 0x91B JUMP JUMPDEST PUSH2 0x1FC JUMP JUMPDEST PUSH1 0x40 MLOAD PUSH2 0xBC SWAP2 SWAP1 PUSH2 0x95E JUMP JUMPDEST PUSH1 0x40 MLOAD DUP1 SWAP2 SUB SWAP1 RETURN JUMPDEST PUSH2 0xDF PUSH1 0x4 DUP1 CALLDATASIZE SUB DUP2 ADD SWAP1 PUSH2 0xDA SWAP2 SWAP1 PUSH2 0x9A1 JUMP JUMPDEST PUSH2 0x211 JUMP JUMPDEST STOP JUMPDEST CALLVALUE DUP1 ISZERO PUSH2 0xEC JUMPI PUSH0 DUP1 REVERT JUMPDEST POP PUSH2 0x107 PUSH1 0x4 DUP1 CALLDATASIZE SUB DUP2 ADD SWAP1 PUSH2 0x102 SWAP2 SWAP1 PUSH2 0x91B JUMP JUMPDEST PUSH2 0x42C JUMP JUMPDEST PUSH1 0x40 MLOAD PUSH2 0x114 SWAP2 SWAP1 PUSH2 0x95E JUMP JUMPDEST PUSH1 0x40 MLOAD DUP1 SWAP2 SUB SWAP1 RETURN JUMPDEST CALLVALUE DUP1 ISZERO PUSH2 0x128 JUMPI PUSH0 DUP1 REVERT JUMPDEST POP PUSH2 0x131 PUSH2 0x472 JUMP JUMPDEST PUSH1 0x40 MLOAD PUSH2 0x13E SWAP2 SWAP1 PUSH2 0x95E JUMP JUMPDEST PUSH1 0x40 MLOAD DUP1 SWAP2 SUB SWAP1 RETURN JUMPDEST CALLVALUE DUP1 ISZERO PUSH2 0x152 JUMPI PUSH0 DUP1 REVERT JUMPDEST POP PUSH2 0x15B PUSH2 0x496 JUMP JUMPDEST PUSH1 0x40 MLOAD PUSH2 0x168 SWAP2 SWAP1 PUSH2 0x95E JUMP JUMPDEST PUSH1 0x40 MLOAD DUP1 SWAP2 SUB SWAP1 RETURN JUMPDEST CALLVALUE DUP1 ISZERO PUSH2 0x17C JUMPI PUSH0 DUP1 REVERT JUMPDEST POP PUSH2 0x185 PUSH2 0x49C JUMP JUMPDEST PUSH1 0x40 MLOAD PUSH2 0x195 SWAP5 SWAP4 SWAP3 SWAP2 SWAP1 PUSH2 0x9CC JUMP JUMPDEST PUSH1 0x40 MLOAD DUP1 SWAP2 SUB SWAP1 RETURN JUMPDEST CALLVALUE DUP1 ISZERO PUSH2 0x1A9 JUMPI PUSH0 DUP1 REVERT JUMPDEST POP PUSH2 0x1B2 PUSH2 0x4E3 JUMP JUMPDEST PUSH1 0x40 MLOAD PUSH2 0x1BF SWAP2 SWAP1 PUSH2 0x95E JUMP JUMPDEST PUSH1 0x40 MLOAD DUP1 SWAP2 SUB SWAP1 RETURN JUMPDEST CALLVALUE DUP1 ISZERO PUSH2 0x1D3 JUMPI PUSH0 DUP1 REVERT JUMPDEST POP PUSH2 0x1DC PUSH2 0x507 JUMP JUMPDEST PUSH1 0x40 MLOAD PUSH2 0x1E9 SWAP2 SWAP1 PUSH2 0x95E JUMP JUMPDEST PUSH1 0x40 MLOAD DUP1 SWAP2 SUB SWAP1 RETURN JUMPDEST PUSH2 0x1FA PUSH2 0x50D JUMP JUMPDEST STOP JUMPDEST PUSH1 0x3 PUSH1 0x20 MSTORE DUP1 PUSH0 MSTORE PUSH1 0x40 PUSH0 KECCAK256 PUSH0 SWAP2 POP SWAP1 POP SLOAD DUP2 JUMP JUMPDEST DUP1 PUSH0 DUP2 SUB PUSH2 0x24B JUMPI PUSH1 0x40 MLOAD PUSH32 0xE45770000000000000000000000000000000000000000000000000000000000 DUP2 MSTORE PUSH1 0x4 ADD PUSH1 0x40 MLOAD DUP1 SWAP2 SUB SWAP1 REVERT JUMPDEST CALLER DUP3 DUP1 PUSH1 0x3 PUSH0 DUP5 PUSH20 0xFFFFFFFFFFFFFFFFFFFFFFFFFFFFFFFFFFFFFFFF AND PUSH20 0xFFFFFFFFFFFFFFFFFFFFFFFFFFFFFFFFFFFFFFFF AND DUP2 MSTORE PUSH1 0x20 ADD SWAP1 DUP2 MSTORE PUSH1 0x20 ADD PUSH0 KECCAK256 SLOAD LT ISZERO PUSH2 0x30E JUMPI DUP1 PUSH1 0x3 PUSH0 DUP5 PUSH20 0xFFFFFFFFFFFFFFFFFFFFFFFFFFFFFFFFFFFFFFFF AND PUSH20 0xFFFFFFFFFFFFFFFFFFFFFFFFFFFFFFFFFFFFFFFF AND DUP2 MSTORE PUSH1 0x20 ADD SWAP1 DUP2 MSTORE PUSH1 0x20 ADD PUSH0 KECCAK256 SLOAD PUSH1 0x40 MLOAD PUSH32 0x8963F2D700000000000000000000000000000000000000000000000000000000 DUP2 MSTORE PUSH1 0x4 ADD PUSH2 0x305 SWAP3 SWAP2 SWAP1 PUSH2 0xA0F JUMP JUMPDEST PUSH1 0x40 MLOAD DUP1 SWAP2 SUB SWAP1 REVERT JUMPDEST DUP4 PUSH1 0x3 PUSH0 CALLER PUSH20 0xFFFFFFFFFFFFFFFFFFFFFFFFFFFFFFFFFFFFFFFF AND PUSH20 0xFFFFFFFFFFFFFFFFFFFFFFFFFFFFFFFFFFFFFFFF AND DUP2 MSTORE PUSH1 0x20 ADD SWAP1 DUP2 MSTORE PUSH1 0x20 ADD PUSH0 KECCAK256 PUSH0 DUP3 DUP3 SLOAD PUSH2 0x35A SWAP2 SWAP1 PUSH2 0xA63 JUMP JUMPDEST SWAP3 POP POP DUP2 SWAP1 SSTORE POP DUP4 PUSH0 DUP1 DUP3 DUP3 SLOAD PUSH2 0x371 SWAP2 SWAP1 PUSH2 0xA63 JUMP JUMPDEST SWAP3 POP POP DUP2 SWAP1 SSTORE POP PUSH1 0x2 PUSH0 DUP2 SLOAD DUP1 SWAP3 SWAP2 SWAP1 PUSH2 0x38A SWAP1 PUSH2 0xA96 JUMP JUMPDEST SWAP2 SWAP1 POP SSTORE POP PUSH2 0x399 CALLER DUP6 PUSH2 0x6ED JUMP JUMPDEST CALLER PUSH20 0xFFFFFFFFFFFFFFFFFFFFFFFFFFFFFFFFFFFFFFFF AND PUSH32 0x751EED5275EDF3E893242F216327249FCFFB890FF19DBFDD0707CEED74172680 DUP6 PUSH1 0x3 PUSH0 CALLER PUSH20 0xFFFFFFFFFFFFFFFFFFFFFFFFFFFFFFFFFFFFFFFF AND PUSH20 0xFFFFFFFFFFFFFFFFFFFFFFFFFFFFFFFFFFFFFFFF AND DUP2 MSTORE PUSH1 0x20 ADD SWAP1 DUP2 MSTORE PUSH1 0x20 ADD PUSH0 KECCAK256 SLOAD PUSH1 0x40 MLOAD PUSH2 0x41E SWAP3 SWAP2 SWAP1 PUSH2 0xA0F JUMP JUMPDEST PUSH1 0x40 MLOAD DUP1 SWAP2 SUB SWAP1 LOG2 POP POP POP POP JUMP JUMPDEST PUSH0 PUSH1 0x3 PUSH0 DUP4 PUSH20 0xFFFFFFFFFFFFFFFFFFFFFFFFFFFFFFFFFFFFFFFF AND PUSH20 0xFFFFFFFFFFFFFFFFFFFFFFFFFFFFFFFFFFFFFFFF AND DUP2 MSTORE PUSH1 0x20 ADD SWAP1 DUP2 MSTORE PUSH1 0x20 ADD PUSH0 KECCAK256 SLOAD SWAP1 POP SWAP2 SWAP1 POP JUMP JUMPDEST PUSH32 0x0 DUP2 JUMP JUMPDEST PUSH1 0x2 SLOAD DUP2 JUMP JUMPDEST PUSH0 DUP1 PUSH0 DUP1 PUSH0 SLOAD PUSH0 SLOAD PUSH32 0x0 PUSH2 0x4CF SWAP2 SWAP1 PUSH2 0xA63 JUMP JUMPDEST PUSH1 0x1 SLOAD PUSH1 0x2 SLOAD SWAP4 POP SWAP4 POP SWAP4 POP SWAP4 POP SWAP1 SWAP2 SWAP3 SWAP4 JUMP JUMPDEST PUSH32 0x0 DUP2 JUMP JUMPDEST PUSH1 0x1 SLOAD DUP2 JUMP JUMPDEST CALLVALUE PUSH0 DUP2 SUB PUSH2 0x547 JUMPI PUSH1 0x40 MLOAD PUSH32 0xDEA6880B00000000000000000000000000000000000000000000000000000000 DUP2 MSTORE PUSH1 0x4 ADD PUSH1 0x40 MLOAD DUP1 SWAP2 SUB SWAP1 REVERT JUMPDEST PUSH0 SLOAD PUSH32 0x0 CALLVALUE PUSH0 DUP2 DUP5 PUSH2 0x578 SWAP2 SWAP1 PUSH2 0xADD JUMP JUMPDEST SWAP1 POP DUP3 DUP2 GT ISZERO PUSH2 0x5CC JUMPI DUP2 DUP5 DUP5 PUSH2 0x58F SWAP2 SWAP1 PUSH2 0xA63 JUMP JUMPDEST PUSH1 0x40 MLOAD PUSH32 0x17F8EDBA00000000000000000000000000000000000000000000000000000000 DUP2 MSTORE PUSH1 0x4 ADD PUSH2 0x5C3 SWAP3 SWAP2 SWAP1 PUSH2 0xA0F JUMP JUMPDEST PUSH1 0x40 MLOAD DUP1 SWAP2 SUB SWAP1 REVERT JUMPDEST CALLVALUE PUSH1 0x3 PUSH0 CALLER PUSH20 0xFFFFFFFFFFFFFFFFFFFFFFFFFFFFFFFFFFFFFFFF AND PUSH20 0xFFFFFFFFFFFFFFFFFFFFFFFFFFFFFFFFFFFFFFFF AND DUP2 MSTORE PUSH1 0x20 ADD SWAP1 DUP2 MSTORE PUSH1 0x20 ADD PUSH0 KECCAK256 PUSH0 DUP3 DUP3 SLOAD PUSH2 0x618 SWAP2 SWAP1 PUSH2 0xADD JUMP JUMPDEST SWAP3 POP POP DUP2 SWAP1 SSTORE POP CALLVALUE PUSH0 SLOAD PUSH2 0x62C SWAP2 SWAP1 PUSH2 0xADD JUMP JUMPDEST PUSH0 DUP1 DUP3 DUP3 SLOAD PUSH2 0x63B SWAP2 SWAP1 PUSH2 0xADD JUMP JUMPDEST SWAP3 POP POP DUP2 SWAP1 SSTORE POP PUSH1 0x1 PUSH0 DUP2 SLOAD DUP1 SWAP3 SWAP2 SWAP1 PUSH2 0x654 SWAP1 PUSH2 0xA96 JUMP JUMPDEST SWAP2 SWAP1 POP SSTORE POP CALLER PUSH20 0xFFFFFFFFFFFFFFFFFFFFFFFFFFFFFFFFFFFFFFFF AND PUSH32 0x1464AEBFD935135DF103ABCEE703EEE0165D4967204767E264B4CBB9A2A8A85A CALLVALUE PUSH1 0x3 PUSH0 CALLER PUSH20 0xFFFFFFFFFFFFFFFFFFFFFFFFFFFFFFFFFFFFFFFF AND PUSH20 0xFFFFFFFFFFFFFFFFFFFFFFFFFFFFFFFFFFFFFFFF AND DUP2 MSTORE PUSH1 0x20 ADD SWAP1 DUP2 MSTORE PUSH1 0x20 ADD PUSH0 KECCAK256 SLOAD PUSH1 0x40 MLOAD PUSH2 0x6DE SWAP3 SWAP2 SWAP1 PUSH2 0xA0F JUMP JUMPDEST PUSH1 0x40 MLOAD DUP1 SWAP2 SUB SWAP1 LOG2 POP POP POP POP POP JUMP JUMPDEST DUP2 PUSH0 DUP1 DUP5 PUSH20 0xFFFFFFFFFFFFFFFFFFFFFFFFFFFFFFFFFFFFFFFF AND DUP5 PUSH1 0x40 MLOAD PUSH2 0x714 SWAP1 PUSH2 0xB3D JUMP JUMPDEST PUSH0 PUSH1 0x40 MLOAD DUP1 DUP4 SUB DUP2 DUP6 DUP8 GAS CALL SWAP3 POP POP POP RETURNDATASIZE DUP1 PUSH0 DUP2 EQ PUSH2 0x74E JUMPI PUSH1 0x40 MLOAD SWAP2 POP PUSH1 0x1F NOT PUSH1 0x3F RETURNDATASIZE ADD AND DUP3 ADD PUSH1 0x40 MSTORE RETURNDATASIZE DUP3 MSTORE RETURNDATASIZE PUSH0 PUSH1 0x20 DUP5 ADD RETURNDATACOPY PUSH2 0x753 JUMP JUMPDEST PUSH1 0x60 SWAP2 POP JUMPDEST POP SWAP2 POP SWAP2 POP DUP2 PUSH2 0x79A JUMPI DUP1 PUSH1 0x40 MLOAD PUSH32 0x9DF665E200000000000000000000000000000000000000000000000000000000 DUP2 MSTORE PUSH1 0x4 ADD PUSH2 0x791 SWAP2 SWAP1 PUSH2 0xBC1 JUMP JUMPDEST PUSH1 0x40 MLOAD DUP1 SWAP2 SUB SWAP1 REVERT JUMPDEST POP POP DUP1 PUSH20 0xFFFFFFFFFFFFFFFFFFFFFFFFFFFFFFFFFFFFFFFF AND CALLER PUSH20 0xFFFFFFFFFFFFFFFFFFFFFFFFFFFFFFFFFFFFFFFF AND EQ PUSH2 0x80A JUMPI PUSH1 0x40 MLOAD PUSH32 0x9DF665E200000000000000000000000000000000000000000000000000000000 DUP2 MSTORE PUSH1 0x4 ADD PUSH2 0x801 SWAP1 PUSH2 0xC51 JUMP JUMPDEST PUSH1 0x40 MLOAD DUP1 SWAP2 SUB SWAP1 REVERT JUMPDEST PUSH0 DUP1 DUP5 PUSH20 0xFFFFFFFFFFFFFFFFFFFFFFFFFFFFFFFFFFFFFFFF AND DUP5 PUSH1 0x40 MLOAD PUSH2 0x830 SWAP1 PUSH2 0xB3D JUMP JUMPDEST PUSH0 PUSH1 0x40 MLOAD DUP1 DUP4 SUB DUP2 DUP6 DUP8 GAS CALL SWAP3 POP POP POP RETURNDATASIZE DUP1 PUSH0 DUP2 EQ PUSH2 0x86A JUMPI PUSH1 0x40 MLOAD SWAP2 POP PUSH1 0x1F NOT PUSH1 0x3F RETURNDATASIZE ADD AND DUP3 ADD PUSH1 0x40 MSTORE RETURNDATASIZE DUP3 MSTORE RETURNDATASIZE PUSH0 PUSH1 0x20 DUP5 ADD RETURNDATACOPY PUSH2 0x86F JUMP JUMPDEST PUSH1 0x60 SWAP2 POP JUMPDEST POP SWAP2 POP SWAP2 POP DUP2 PUSH2 0x8B6 JUMPI DUP1 PUSH1 0x40 MLOAD PUSH32 0x9DF665E200000000000000000000000000000000000000000000000000000000 DUP2 MSTORE PUSH1 0x4 ADD PUSH2 0x8AD SWAP2 SWAP1 PUSH2 0xBC1 JUMP JUMPDEST PUSH1 0x40 MLOAD DUP1 SWAP2 SUB SWAP1 REVERT JUMPDEST POP POP POP POP POP JUMP JUMPDEST PUSH0 DUP1 REVERT JUMPDEST PUSH0 PUSH20 0xFFFFFFFFFFFFFFFFFFFFFFFFFFFFFFFFFFFFFFFF DUP3 AND SWAP1 POP SWAP2 SWAP1 POP JUMP JUMPDEST PUSH0 PUSH2 0x8EA DUP3 PUSH2 0x8C1 JUMP JUMPDEST SWAP1 POP SWAP2 SWAP1 POP JUMP JUMPDEST PUSH2 0x8FA DUP2 PUSH2 0x8E0 JUMP JUMPDEST DUP2 EQ PUSH2 0x904 JUMPI PUSH0 DUP1 REVERT JUMPDEST POP JUMP JUMPDEST PUSH0 DUP2 CALLDATALOAD SWAP1 POP PUSH2 0x915 DUP2 PUSH2 0x8F1 JUMP JUMPDEST SWAP3 SWAP2 POP POP JUMP JUMPDEST PUSH0 PUSH1 0x20 DUP3 DUP5 SUB SLT ISZERO PUSH2 0x930 JUMPI PUSH2 0x92F PUSH2 0x8BD JUMP JUMPDEST JUMPDEST PUSH0 PUSH2 0x93D DUP5 DUP3 DUP6 ADD PUSH2 0x907 JUMP JUMPDEST SWAP2 POP POP SWAP3 SWAP2 POP POP JUMP JUMPDEST PUSH0 DUP2 SWAP1 POP SWAP2 SWAP1 POP JUMP JUMPDEST PUSH2 0x958 DUP2 PUSH2 0x946 JUMP JUMPDEST DUP3 MSTORE POP POP JUMP JUMPDEST PUSH0 PUSH1 0x20 DUP3 ADD SWAP1 POP PUSH2 0x971 PUSH0 DUP4 ADD DUP5 PUSH2 0x94F JUMP JUMPDEST SWAP3 SWAP2 POP POP JUMP JUMPDEST PUSH2 0x980 DUP2 PUSH2 0x946 JUMP JUMPDEST DUP2 EQ PUSH2 0x98A JUMPI PUSH0 DUP1 REVERT JUMPDEST POP JUMP JUMPDEST PUSH0 DUP2 CALLDATALOAD SWAP1 POP PUSH2 0x99B DUP2 PUSH2 0x977 JUMP JUMPDEST SWAP3 SWAP2 POP POP JUMP JUMPDEST PUSH0 PUSH1 0x20 DUP3 DUP5 SUB SLT ISZERO PUSH2 0x9B6 JUMPI PUSH2 0x9B5 PUSH2 0x8BD JUMP JUMPDEST JUMPDEST PUSH0 PUSH2 0x9C3 DUP5 DUP3 DUP6 ADD PUSH2 0x98D JUMP JUMPDEST SWAP2 POP POP SWAP3 SWAP2 POP POP JUMP JUMPDEST PUSH0 PUSH1 0x80 DUP3 ADD SWAP1 POP PUSH2 0x9DF PUSH0 DUP4 ADD DUP8 PUSH2 0x94F JUMP JUMPDEST PUSH2 0x9EC PUSH1 0x20 DUP4 ADD DUP7 PUSH2 0x94F JUMP JUMPDEST PUSH2 0x9F9 PUSH1 0x40 DUP4 ADD DUP6 PUSH2 0x94F JUMP JUMPDEST PUSH2 0xA06 PUSH1 0x60 DUP4 ADD DUP5 PUSH2 0x94F JUMP JUMPDEST SWAP6 SWAP5 POP POP POP POP POP JUMP JUMPDEST PUSH0 PUSH1 0x40 DUP3 ADD SWAP1 POP PUSH2 0xA22 PUSH0 DUP4 ADD DUP6 PUSH2 0x94F JUMP JUMPDEST PUSH2 0xA2F PUSH1 0x20 DUP4 ADD DUP5 PUSH2 0x94F JUMP JUMPDEST SWAP4 SWAP3 POP POP POP JUMP JUMPDEST PUSH32 0x4E487B7100000000000000000000000000000000000000000000000000000000 PUSH0 MSTORE PUSH1 0x11 PUSH1 0x4 MSTORE PUSH1 0x24 PUSH0 REVERT JUMPDEST PUSH0 PUSH2 0xA6D DUP3 PUSH2 0x946 JUMP JUMPDEST SWAP2 POP PUSH2 0xA78 DUP4 PUSH2 0x946 JUMP JUMPDEST SWAP3 POP DUP3 DUP3 SUB SWAP1 POP DUP2 DUP2 GT ISZERO PUSH2 0xA90 JUMPI PUSH2 0xA8F PUSH2 0xA36 JUMP JUMPDEST JUMPDEST SWAP3 SWAP2 POP POP JUMP JUMPDEST PUSH0 PUSH2 0xAA0 DUP3 PUSH2 0x946 JUMP JUMPDEST SWAP2 POP PUSH32 0xFFFFFFFFFFFFFFFFFFFFFFFFFFFFFFFFFFFFFFFFFFFFFFFFFFFFFFFFFFFFFFFF DUP3 SUB PUSH2 0xAD2 JUMPI PUSH2 0xAD1 PUSH2 0xA36 JUMP JUMPDEST JUMPDEST PUSH1 0x1 DUP3 ADD SWAP1 POP SWAP2 SWAP1 POP JUMP JUMPDEST PUSH0 PUSH2 0xAE7 DUP3 PUSH2 0x946 JUMP JUMPDEST SWAP2 POP PUSH2 0xAF2 DUP4 PUSH2 0x946 JUMP JUMPDEST SWAP3 POP DUP3 DUP3 ADD SWAP1 POP DUP1 DUP3 GT ISZERO PUSH2 0xB0A JUMPI PUSH2 0xB09 PUSH2 0xA36 JUMP JUMPDEST JUMPDEST SWAP3 SWAP2 POP POP JUMP JUMPDEST PUSH0 DUP2 SWAP1 POP SWAP3 SWAP2 POP POP JUMP JUMPDEST POP JUMP JUMPDEST PUSH0 PUSH2 0xB28 PUSH0 DUP4 PUSH2 0xB10 JUMP JUMPDEST SWAP2 POP PUSH2 0xB33 DUP3 PUSH2 0xB1A JUMP JUMPDEST PUSH0 DUP3 ADD SWAP1 POP SWAP2 SWAP1 POP JUMP JUMPDEST PUSH0 PUSH2 0xB47 DUP3 PUSH2 0xB1D JUMP JUMPDEST SWAP2 POP DUP2 SWAP1 POP SWAP2 SWAP1 POP JUMP JUMPDEST PUSH0 DUP2 MLOAD SWAP1 POP SWAP2 SWAP1 POP JUMP JUMPDEST PUSH0 DUP3 DUP3 MSTORE PUSH1 0x20 DUP3 ADD SWAP1 POP SWAP3 SWAP2 POP POP JUMP JUMPDEST DUP3 DUP2 DUP4 MCOPY PUSH0 DUP4 DUP4 ADD MSTORE POP POP POP JUMP JUMPDEST PUSH0 PUSH1 0x1F NOT PUSH1 0x1F DUP4 ADD AND SWAP1 POP SWAP2 SWAP1 POP JUMP JUMPDEST PUSH0 PUSH2 0xB93 DUP3 PUSH2 0xB51 JUMP JUMPDEST PUSH2 0xB9D DUP2 DUP6 PUSH2 0xB5B JUMP JUMPDEST SWAP4 POP PUSH2 0xBAD DUP2 DUP6 PUSH1 0x20 DUP7 ADD PUSH2 0xB6B JUMP JUMPDEST PUSH2 0xBB6 DUP2 PUSH2 0xB79 JUMP JUMPDEST DUP5 ADD SWAP2 POP POP SWAP3 SWAP2 POP POP JUMP JUMPDEST PUSH0 PUSH1 0x20 DUP3 ADD SWAP1 POP DUP2 DUP2 SUB PUSH0 DUP4 ADD MSTORE PUSH2 0xBD9 DUP2 DUP5 PUSH2 0xB89 JUMP JUMPDEST SWAP1 POP SWAP3 SWAP2 POP POP JUMP JUMPDEST PUSH32 0x4C6120646972656363696F6E2064656C207573756172696F2063616D62696F20 PUSH0 DUP3 ADD MSTORE PUSH32 0x647572616E746520656C2072657469726F206465204554482E00000000000000 PUSH1 0x20 DUP3 ADD MSTORE POP JUMP JUMPDEST PUSH0 PUSH2 0xC3B PUSH1 0x39 DUP4 PUSH2 0xB5B JUMP JUMPDEST SWAP2 POP PUSH2 0xC46 DUP3 PUSH2 0xBE1 JUMP JUMPDEST PUSH1 0x40 DUP3 ADD SWAP1 POP SWAP2 SWAP1 POP JUMP JUMPDEST PUSH0 PUSH1 0x20 DUP3 ADD SWAP1 POP DUP2 DUP2 SUB PUSH0 DUP4 ADD MSTORE PUSH2 0xC68 DUP2 PUSH2 0xC2F JUMP JUMPDEST SWAP1 POP SWAP2 SWAP1 POP JUMP INVALID LOG2 PUSH5 0x6970667358 0x22 SLT KECCAK256 RETURN GASPRICE 0xD8 0xD8 PUSH20 0xF26E16AD258AFBECFDE62BB3A3BC03090CE6F754 NUMBER 0xB5 DUP10 SELFBALANCE PUSH25 0xAD7664736F6C634300081A0033000000000000000000000000 "
				},
				"gasEstimates": {
					"creation": {
						"codeDepositCost": "647400",
						"executionCost": "infinite",
						"totalCost": "infinite"
					},
					"external": {
						"balances(address)": "2803",
						"deposit()": "infinite",
						"getBankStats()": "infinite",
						"getUserBalance(address)": "2874",
						"s_bankCap()": "infinite",
						"s_depositCount()": "2491",
						"s_withdrawalCount()": "2425",
						"s_withdrawalThreshold()": "infinite",
						"withdraw(uint256)": "infinite"
					},
					"internal": {
						"_safeTransfer(address,uint256)": "infinite"
					}
				},
				"methodIdentifiers": {
					"balances(address)": "27e235e3",
					"deposit()": "d0e30db0",
					"getBankStats()": "c6e8e38c",
					"getUserBalance(address)": "47734892",
					"s_bankCap()": "80ef10ed",
					"s_depositCount()": "cac2e25f",
					"s_withdrawalCount()": "b2343b1c",
					"s_withdrawalThreshold()": "c87a1ba2",
					"withdraw(uint256)": "2e1a7d4d"
				}
			},
			"storageLayout": {
				"storage": [
					{
						"astId": 7,
						"contract": "contracts/KipuBank.sol:KipuBank",
						"label": "s_totalDeposits",
						"offset": 0,
						"slot": "0",
						"type": "t_uint256"
					},
					{
						"astId": 9,
						"contract": "contracts/KipuBank.sol:KipuBank",
						"label": "s_depositCount",
						"offset": 0,
						"slot": "1",
						"type": "t_uint256"
					},
					{
						"astId": 11,
						"contract": "contracts/KipuBank.sol:KipuBank",
						"label": "s_withdrawalCount",
						"offset": 0,
						"slot": "2",
						"type": "t_uint256"
					},
					{
						"astId": 15,
						"contract": "contracts/KipuBank.sol:KipuBank",
						"label": "balances",
						"offset": 0,
						"slot": "3",
						"type": "t_mapping(t_address,t_uint256)"
					}
				],
				"types": {
					"t_address": {
						"encoding": "inplace",
						"label": "address",
						"numberOfBytes": "20"
					},
					"t_mapping(t_address,t_uint256)": {
						"encoding": "mapping",
						"key": "t_address",
						"label": "mapping(address => uint256)",
						"numberOfBytes": "32",
						"value": "t_uint256"
					},
					"t_uint256": {
						"encoding": "inplace",
						"label": "uint256",
						"numberOfBytes": "32"
					}
				}
			},
			"userdoc": {
				"kind": "user",
				"methods": {},
				"version": 1
			}
		}
	}
}