{
	"data": {
		"bytecode": {
			"linkReferences": {},
			"object": "60c060405234801561000f575f80fd5b50604051610e14380380610e1483398181016040528101906100319190610102565b805f810361006b576040517f0e45770000000000000000000000000000000000000000000000000000000000815260040160405180910390fd5b825f81036100a5576040517fdea6880b00000000000000000000000000000000000000000000000000000000815260040160405180910390fd5b8360a0818152505082608081815250505f80819055505f60018190555050505050610140565b5f80fd5b5f819050919050565b6100e1816100cf565b81146100eb575f80fd5b50565b5f815190506100fc816100d8565b92915050565b5f8060408385031215610118576101176100cb565b5b5f610125858286016100ee565b9250506020610136858286016100ee565b9150509250929050565b60805160a051610ca561016f5f395f8181610474015281816104a6015261054b01525f6104e50152610ca55ff3fe608060405260043610610085575f3560e01c8063b2343b1c11610058578063b2343b1c14610147578063c6e8e38c14610171578063c87a1ba21461019e578063cac2e25f146101c8578063d0e30db0146101f257610085565b806327e235e3146100895780632e1a7d4d146100c557806347734892146100e157806380ef10ed1461011d575b5f80fd5b348015610094575f80fd5b506100af60048036038101906100aa919061091b565b6101fc565b6040516100bc919061095e565b60405180910390f35b6100df60048036038101906100da91906109a1565b610211565b005b3480156100ec575f80fd5b506101076004803603810190610102919061091b565b61042c565b604051610114919061095e565b60405180910390f35b348015610128575f80fd5b50610131610472565b60405161013e919061095e565b60405180910390f35b348015610152575f80fd5b5061015b610496565b604051610168919061095e565b60405180910390f35b34801561017c575f80fd5b5061018561049c565b60405161019594939291906109cc565b60405180910390f35b3480156101a9575f80fd5b506101b26104e3565b6040516101bf919061095e565b60405180910390f35b3480156101d3575f80fd5b506101dc610507565b6040516101e9919061095e565b60405180910390f35b6101fa61050d565b005b6003602052805f5260405f205f915090505481565b805f810361024b576040517f0e45770000000000000000000000000000000000000000000000000000000000815260040160405180910390fd5b33828060035f8473ffffffffffffffffffffffffffffffffffffffff1673ffffffffffffffffffffffffffffffffffffffff1681526020019081526020015f2054101561030e578060035f8473ffffffffffffffffffffffffffffffffffffffff1673ffffffffffffffffffffffffffffffffffffffff1681526020019081526020015f20546040517f8963f2d7000000000000000000000000000000000000000000000000000000008152600401610305929190610a0f565b60405180910390fd5b8360035f3373ffffffffffffffffffffffffffffffffffffffff1673ffffffffffffffffffffffffffffffffffffffff1681526020019081526020015f205f82825461035a9190610a63565b92505081905550835f808282546103719190610a63565b9250508190555060025f81548092919061038a90610a96565b919050555061039933856106ed565b3373ffffffffffffffffffffffffffffffffffffffff167f751eed5275edf3e893242f216327249fcffb890ff19dbfdd0707ceed741726808560035f3373ffffffffffffffffffffffffffffffffffffffff1673ffffffffffffffffffffffffffffffffffffffff1681526020019081526020015f205460405161041e929190610a0f565b60405180910390a250505050565b5f60035f8373ffffffffffffffffffffffffffffffffffffffff1673ffffffffffffffffffffffffffffffffffffffff1681526020019081526020015f20549050919050565b7f000000000000000000000000000000000000000000000000000000000000000081565b60025481565b5f805f805f545f547f00000000000000000000000000000000000000000000000000000000000000006104cf9190610a63565b600154600254935093509350935090919293565b7f000000000000000000000000000000000000000000000000000000000000000081565b60015481565b345f8103610547576040517fdea6880b00000000000000000000000000000000000000000000000000000000815260040160405180910390fd5b5f547f0000000000000000000000000000000000000000000000000000000000000000345f81846105789190610add565b9050828111156105cc5781848461058f9190610a63565b6040517f17f8edba0000000000000000000000000000000000000000000000000000000081526004016105c3929190610a0f565b60405180910390fd5b3460035f3373ffffffffffffffffffffffffffffffffffffffff1673ffffffffffffffffffffffffffffffffffffffff1681526020019081526020015f205f8282546106189190610add565b92505081905550345f5461062c9190610add565b5f8082825461063b9190610add565b9250508190555060015f81548092919061065490610a96565b91905055503373ffffffffffffffffffffffffffffffffffffffff167f1464aebfd935135df103abcee703eee0165d4967204767e264b4cbb9a2a8a85a3460035f3373ffffffffffffffffffffffffffffffffffffffff1673ffffffffffffffffffffffffffffffffffffffff1681526020019081526020015f20546040516106de929190610a0f565b60405180910390a25050505050565b815f808473ffffffffffffffffffffffffffffffffffffffff168460405161071490610b3d565b5f6040518083038185875af1925050503d805f811461074e576040519150601f19603f3d011682016040523d82523d5f602084013e610753565b606091505b50915091508161079a57806040517f9df665e20000000000000000000000000000000000000000000000000000000081526004016107919190610bc1565b60405180910390fd5b50508073ffffffffffffffffffffffffffffffffffffffff163373ffffffffffffffffffffffffffffffffffffffff161461080a576040517f9df665e200000000000000000000000000000000000000000000000000000000815260040161080190610c51565b60405180910390fd5b5f808473ffffffffffffffffffffffffffffffffffffffff168460405161083090610b3d565b5f6040518083038185875af1925050503d805f811461086a576040519150601f19603f3d011682016040523d82523d5f602084013e61086f565b606091505b5091509150816108b657806040517f9df665e20000000000000000000000000000000000000000000000000000000081526004016108ad9190610bc1565b60405180910390fd5b5050505050565b5f80fd5b5f73ffffffffffffffffffffffffffffffffffffffff82169050919050565b5f6108ea826108c1565b9050919050565b6108fa816108e0565b8114610904575f80fd5b50565b5f81359050610915816108f1565b92915050565b5f602082840312156109305761092f6108bd565b5b5f61093d84828501610907565b91505092915050565b5f819050919050565b61095881610946565b82525050565b5f6020820190506109715f83018461094f565b92915050565b61098081610946565b811461098a575f80fd5b50565b5f8135905061099b81610977565b92915050565b5f602082840312156109b6576109b56108bd565b5b5f6109c38482850161098d565b91505092915050565b5f6080820190506109df5f83018761094f565b6109ec602083018661094f565b6109f9604083018561094f565b610a06606083018461094f565b95945050505050565b5f604082019050610a225f83018561094f565b610a2f602083018461094f565b9392505050565b7f4e487b71000000000000000000000000000000000000000000000000000000005f52601160045260245ffd5b5f610a6d82610946565b9150610a7883610946565b9250828203905081811115610a9057610a8f610a36565b5b92915050565b5f610aa082610946565b91507fffffffffffffffffffffffffffffffffffffffffffffffffffffffffffffffff8203610ad257610ad1610a36565b5b600182019050919050565b5f610ae782610946565b9150610af283610946565b9250828201905080821115610b0a57610b09610a36565b5b92915050565b5f81905092915050565b50565b5f610b285f83610b10565b9150610b3382610b1a565b5f82019050919050565b5f610b4782610b1d565b9150819050919050565b5f81519050919050565b5f82825260208201905092915050565b8281835e5f83830152505050565b5f601f19601f8301169050919050565b5f610b9382610b51565b610b9d8185610b5b565b9350610bad818560208601610b6b565b610bb681610b79565b840191505092915050565b5f6020820190508181035f830152610bd98184610b89565b905092915050565b7f4c6120646972656363696f6e2064656c207573756172696f2063616d62696f205f8201527f647572616e746520656c2072657469726f206465204554482e00000000000000602082015250565b5f610c3b603983610b5b565b9150610c4682610be1565b604082019050919050565b5f6020820190508181035f830152610c6881610c2f565b905091905056fea2646970667358221220f33ad8d873f26e16ad258afbecfde62bb3a3bc03090ce6f75443b5894778ad7664736f6c634300081a0033",
			"opcodes": "PUSH1 0xC0 PUSH1 0x40 MSTORE CALLVALUE DUP1 ISZERO PUSH2 0xF JUMPI PUSH0 DUP1 REVERT JUMPDEST POP PUSH1 0x40 MLOAD PUSH2 0xE14 CODESIZE SUB DUP1 PUSH2 0xE14 DUP4 CODECOPY DUP2 DUP2 ADD PUSH1 0x40 MSTORE DUP2 ADD SWAP1 PUSH2 0x31 SWAP2 SWAP1 PUSH2 0x102 JUMP JUMPDEST DUP1 PUSH0 DUP2 SUB PUSH2 0x6B JUMPI PUSH1 0x40 MLOAD PUSH32 0xE45770000000000000000000000000000000000000000000000000000000000 DUP2 MSTORE PUSH1 0x4 ADD PUSH1 0x40 MLOAD DUP1 SWAP2 SUB SWAP1 REVERT JUMPDEST DUP3 PUSH0 DUP2 SUB PUSH2 0xA5 JUMPI PUSH1 0x40 MLOAD PUSH32 0xDEA6880B00000000000000000000000000000000000000000000000000000000 DUP2 MSTORE PUSH1 0x4 ADD PUSH1 0x40 MLOAD DUP1 SWAP2 SUB SWAP1 REVERT JUMPDEST DUP4 PUSH1 0xA0 DUP2 DUP2 MSTORE POP POP DUP3 PUSH1 0x80 DUP2 DUP2 MSTORE POP POP PUSH0 DUP1 DUP2 SWAP1 SSTORE POP PUSH0 PUSH1 0x1 DUP2 SWAP1 SSTORE POP POP POP POP POP PUSH2 0x140 JUMP JUMPDEST PUSH0 DUP1 REVERT JUMPDEST PUSH0 DUP2 SWAP1 POP SWAP2 SWAP1 POP JUMP JUMPDEST PUSH2 0xE1 DUP2 PUSH2 0xCF JUMP JUMPDEST DUP2 EQ PUSH2 0xEB JUMPI PUSH0 DUP1 REVERT JUMPDEST POP JUMP JUMPDEST PUSH0 DUP2 MLOAD SWAP1 POP PUSH2 0xFC DUP2 PUSH2 0xD8 JUMP JUMPDEST SWAP3 SWAP2 POP POP JUMP JUMPDEST PUSH0 DUP1 PUSH1 0x40 DUP4 DUP6 SUB SLT ISZERO PUSH2 0x118 JUMPI PUSH2 0x117 PUSH2 0xCB JUMP JUMPDEST JUMPDEST PUSH0 PUSH2 0x125 DUP6 DUP3 DUP7 ADD PUSH2 0xEE JUMP JUMPDEST SWAP3 POP POP PUSH1 0x20 PUSH2 0x136 DUP6 DUP3 DUP7 ADD PUSH2 0xEE JUMP JUMPDEST SWAP2 POP POP SWAP3 POP SWAP3 SWAP1 POP JUMP JUMPDEST PUSH1 0x80 MLOAD PUSH1 0xA0 MLOAD PUSH2 0xCA5 PUSH2 0x16F PUSH0 CODECOPY PUSH0 DUP2 DUP2 PUSH2 0x474 ADD MSTORE DUP2 DUP2 PUSH2 0x4A6 ADD MSTORE PUSH2 0x54B ADD MSTORE PUSH0 PUSH2 0x4E5 ADD MSTORE PUSH2 0xCA5 PUSH0 RETURN INVALID PUSH1 0x80 PUSH1 0x40 MSTORE PUSH1 0x4 CALLDATASIZE LT PUSH2 0x85 JUMPI PUSH0 CALLDATALOAD PUSH1 0xE0 SHR DUP1 PUSH4 0xB2343B1C GT PUSH2 0x58 JUMPI DUP1 PUSH4 0xB2343B1C EQ PUSH2 0x147 JUMPI DUP1 PUSH4 0xC6E8E38C EQ PUSH2 0x171 JUMPI DUP1 PUSH4 0xC87A1BA2 EQ PUSH2 0x19E JUMPI DUP1 PUSH4 0xCAC2E25F EQ PUSH2 0x1C8 JUMPI DUP1 PUSH4 0xD0E30DB0 EQ PUSH2 0x1F2 JUMPI PUSH2 0x85 JUMP JUMPDEST DUP1 PUSH4 0x27E235E3 EQ PUSH2 0x89 JUMPI DUP1 PUSH4 0x2E1A7D4D EQ PUSH2 0xC5 JUMPI DUP1 PUSH4 0x47734892 EQ PUSH2 0xE1 JUMPI DUP1 PUSH4 0x80EF10ED EQ PUSH2 0x11D JUMPI JUMPDEST PUSH0 DUP1 REVERT JUMPDEST CALLVALUE DUP1 ISZERO PUSH2 0x94 JUMPI PUSH0 DUP1 REVERT JUMPDEST POP PUSH2 0xAF PUSH1 0x4 DUP1 CALLDATASIZE SUB DUP2 ADD SWAP1 PUSH2 0xAA SWAP2 SWAP1 PUSH2 0x91B JUMP JUMPDEST PUSH2 0x1FC JUMP JUMPDEST PUSH1 0x40 MLOAD PUSH2 0xBC SWAP2 SWAP1 PUSH2 0x95E JUMP JUMPDEST PUSH1 0x40 MLOAD DUP1 SWAP2 SUB SWAP1 RETURN JUMPDEST PUSH2 0xDF PUSH1 0x4 DUP1 CALLDATASIZE SUB DUP2 ADD SWAP1 PUSH2 0xDA SWAP2 SWAP1 PUSH2 0x9A1 JUMP JUMPDEST PUSH2 0x211 JUMP JUMPDEST STOP JUMPDEST CALLVALUE DUP1 ISZERO PUSH2 0xEC JUMPI PUSH0 DUP1 REVERT JUMPDEST POP PUSH2 0x107 PUSH1 0x4 DUP1 CALLDATASIZE SUB DUP2 ADD SWAP1 PUSH2 0x102 SWAP2 SWAP1 PUSH2 0x91B JUMP JUMPDEST PUSH2 0x42C JUMP JUMPDEST PUSH1 0x40 MLOAD PUSH2 0x114 SWAP2 SWAP1 PUSH2 0x95E JUMP JUMPDEST PUSH1 0x40 MLOAD DUP1 SWAP2 SUB SWAP1 RETURN JUMPDEST CALLVALUE DUP1 ISZERO PUSH2 0x128 JUMPI PUSH0 DUP1 REVERT JUMPDEST POP PUSH2 0x131 PUSH2 0x472 JUMP JUMPDEST PUSH1 0x40 MLOAD PUSH2 0x13E SWAP2 SWAP1 PUSH2 0x95E JUMP JUMPDEST PUSH1 0x40 MLOAD DUP1 SWAP2 SUB SWAP1 RETURN JUMPDEST CALLVALUE DUP1 ISZERO PUSH2 0x152 JUMPI PUSH0 DUP1 REVERT JUMPDEST POP PUSH2 0x15B PUSH2 0x496 JUMP JUMPDEST PUSH1 0x40 MLOAD PUSH2 0x168 SWAP2 SWAP1 PUSH2 0x95E JUMP JUMPDEST PUSH1 0x40 MLOAD DUP1 SWAP2 SUB SWAP1 RETURN JUMPDEST CALLVALUE DUP1 ISZERO PUSH2 0x17C JUMPI PUSH0 DUP1 REVERT JUMPDEST POP PUSH2 0x185 PUSH2 0x49C JUMP JUMPDEST PUSH1 0x40 MLOAD PUSH2 0x195 SWAP5 SWAP4 SWAP3 SWAP2 SWAP1 PUSH2 0x9CC JUMP JUMPDEST PUSH1 0x40 MLOAD DUP1 SWAP2 SUB SWAP1 RETURN JUMPDEST CALLVALUE DUP1 ISZERO PUSH2 0x1A9 JUMPI PUSH0 DUP1 REVERT JUMPDEST POP PUSH2 0x1B2 PUSH2 0x4E3 JUMP JUMPDEST PUSH1 0x40 MLOAD PUSH2 0x1BF SWAP2 SWAP1 PUSH2 0x95E JUMP JUMPDEST PUSH1 0x40 MLOAD DUP1 SWAP2 SUB SWAP1 RETURN JUMPDEST CALLVALUE DUP1 ISZERO PUSH2 0x1D3 JUMPI PUSH0 DUP1 REVERT JUMPDEST POP PUSH2 0x1DC PUSH2 0x507 JUMP JUMPDEST PUSH1 0x40 MLOAD PUSH2 0x1E9 SWAP2 SWAP1 PUSH2 0x95E JUMP JUMPDEST PUSH1 0x40 MLOAD DUP1 SWAP2 SUB SWAP1 RETURN JUMPDEST PUSH2 0x1FA PUSH2 0x50D JUMP JUMPDEST STOP JUMPDEST PUSH1 0x3 PUSH1 0x20 MSTORE DUP1 PUSH0 MSTORE PUSH1 0x40 PUSH0 KECCAK256 PUSH0 SWAP2 POP SWAP1 POP SLOAD DUP2 JUMP JUMPDEST DUP1 PUSH0 DUP2 SUB PUSH2 0x24B JUMPI PUSH1 0x40 MLOAD PUSH32 0xE45770000000000000000000000000000000000000000000000000000000000 DUP2 MSTORE PUSH1 0x4 ADD PUSH1 0x40 MLOAD DUP1 SWAP2 SUB SWAP1 REVERT JUMPDEST CALLER DUP3 DUP1 PUSH1 0x3 PUSH0 DUP5 PUSH20 0xFFFFFFFFFFFFFFFFFFFFFFFFFFFFFFFFFFFFFFFF AND PUSH20 0xFFFFFFFFFFFFFFFFFFFFFFFFFFFFFFFFFFFFFFFF AND DUP2 MSTORE PUSH1 0x20 ADD SWAP1 DUP2 MSTORE PUSH1 0x20 ADD PUSH0 KECCAK256 SLOAD LT ISZERO PUSH2 0x30E JUMPI DUP1 PUSH1 0x3 PUSH0 DUP5 PUSH20 0xFFFFFFFFFFFFFFFFFFFFFFFFFFFFFFFFFFFFFFFF AND PUSH20 0xFFFFFFFFFFFFFFFFFFFFFFFFFFFFFFFFFFFFFFFF AND DUP2 MSTORE PUSH1 0x20 ADD SWAP1 DUP2 MSTORE PUSH1 0x20 ADD PUSH0 KECCAK256 SLOAD PUSH1 0x40 MLOAD PUSH32 0x8963F2D700000000000000000000000000000000000000000000000000000000 DUP2 MSTORE PUSH1 0x4 ADD PUSH2 0x305 SWAP3 SWAP2 SWAP1 PUSH2 0xA0F JUMP JUMPDEST PUSH1 0x40 MLOAD DUP1 SWAP2 SUB SWAP1 REVERT JUMPDEST DUP4 PUSH1 0x3 PUSH0 CALLER PUSH20 0xFFFFFFFFFFFFFFFFFFFFFFFFFFFFFFFFFFFFFFFF AND PUSH20 0xFFFFFFFFFFFFFFFFFFFFFFFFFFFFFFFFFFFFFFFF AND DUP2 MSTORE PUSH1 0x20 ADD SWAP1 DUP2 MSTORE PUSH1 0x20 ADD PUSH0 KECCAK256 PUSH0 DUP3 DUP3 SLOAD PUSH2 0x35A SWAP2 SWAP1 PUSH2 0xA63 JUMP JUMPDEST SWAP3 POP POP DUP2 SWAP1 SSTORE POP DUP4 PUSH0 DUP1 DUP3 DUP3 SLOAD PUSH2 0x371 SWAP2 SWAP1 PUSH2 0xA63 JUMP JUMPDEST SWAP3 POP POP DUP2 SWAP1 SSTORE POP PUSH1 0x2 PUSH0 DUP2 SLOAD DUP1 SWAP3 SWAP2 SWAP1 PUSH2 0x38A SWAP1 PUSH2 0xA96 JUMP JUMPDEST SWAP2 SWAP1 POP SSTORE POP PUSH2 0x399 CALLER DUP6 PUSH2 0x6ED JUMP JUMPDEST CALLER PUSH20 0xFFFFFFFFFFFFFFFFFFFFFFFFFFFFFFFFFFFFFFFF AND PUSH32 0x751EED5275EDF3E893242F216327249FCFFB890FF19DBFDD0707CEED74172680 DUP6 PUSH1 0x3 PUSH0 CALLER PUSH20 0xFFFFFFFFFFFFFFFFFFFFFFFFFFFFFFFFFFFFFFFF AND PUSH20 0xFFFFFFFFFFFFFFFFFFFFFFFFFFFFFFFFFFFFFFFF AND DUP2 MSTORE PUSH1 0x20 ADD SWAP1 DUP2 MSTORE PUSH1 0x20 ADD PUSH0 KECCAK256 SLOAD PUSH1 0x40 MLOAD PUSH2 0x41E SWAP3 SWAP2 SWAP1 PUSH2 0xA0F JUMP JUMPDEST PUSH1 0x40 MLOAD DUP1 SWAP2 SUB SWAP1 LOG2 POP POP POP POP JUMP JUMPDEST PUSH0 PUSH1 0x3 PUSH0 DUP4 PUSH20 0xFFFFFFFFFFFFFFFFFFFFFFFFFFFFFFFFFFFFFFFF AND PUSH20 0xFFFFFFFFFFFFFFFFFFFFFFFFFFFFFFFFFFFFFFFF AND DUP2 MSTORE PUSH1 0x20 ADD SWAP1 DUP2 MSTORE PUSH1 0x20 ADD PUSH0 KECCAK256 SLOAD SWAP1 POP SWAP2 SWAP1 POP JUMP JUMPDEST PUSH32 0x0 DUP2 JUMP JUMPDEST PUSH1 0x2 SLOAD DUP2 JUMP JUMPDEST PUSH0 DUP1 PUSH0 DUP1 PUSH0 SLOAD PUSH0 SLOAD PUSH32 0x0 PUSH2 0x4CF SWAP2 SWAP1 PUSH2 0xA63 JUMP JUMPDEST PUSH1 0x1 SLOAD PUSH1 0x2 SLOAD SWAP4 POP SWAP4 POP SWAP4 POP SWAP4 POP SWAP1 SWAP2 SWAP3 SWAP4 JUMP JUMPDEST PUSH32 0x0 DUP2 JUMP JUMPDEST PUSH1 0x1 SLOAD DUP2 JUMP JUMPDEST CALLVALUE PUSH0 DUP2 SUB PUSH2 0x547 JUMPI PUSH1 0x40 MLOAD PUSH32 0xDEA6880B00000000000000000000000000000000000000000000000000000000 DUP2 MSTORE PUSH1 0x4 ADD PUSH1 0x40 MLOAD DUP1 SWAP2 SUB SWAP1 REVERT JUMPDEST PUSH0 SLOAD PUSH32 0x0 CALLVALUE PUSH0 DUP2 DUP5 PUSH2 0x578 SWAP2 SWAP1 PUSH2 0xADD JUMP JUMPDEST SWAP1 POP DUP3 DUP2 GT ISZERO PUSH2 0x5CC JUMPI DUP2 DUP5 DUP5 PUSH2 0x58F SWAP2 SWAP1 PUSH2 0xA63 JUMP JUMPDEST PUSH1 0x40 MLOAD PUSH32 0x17F8EDBA00000000000000000000000000000000000000000000000000000000 DUP2 MSTORE PUSH1 0x4 ADD PUSH2 0x5C3 SWAP3 SWAP2 SWAP1 PUSH2 0xA0F JUMP JUMPDEST PUSH1 0x40 MLOAD DUP1 SWAP2 SUB SWAP1 REVERT JUMPDEST CALLVALUE PUSH1 0x3 PUSH0 CALLER PUSH20 0xFFFFFFFFFFFFFFFFFFFFFFFFFFFFFFFFFFFFFFFF AND PUSH20 0xFFFFFFFFFFFFFFFFFFFFFFFFFFFFFFFFFFFFFFFF AND DUP2 MSTORE PUSH1 0x20 ADD SWAP1 DUP2 MSTORE PUSH1 0x20 ADD PUSH0 KECCAK256 PUSH0 DUP3 DUP3 SLOAD PUSH2 0x618 SWAP2 SWAP1 PUSH2 0xADD JUMP JUMPDEST SWAP3 POP POP DUP2 SWAP1 SSTORE POP CALLVALUE PUSH0 SLOAD PUSH2 0x62C SWAP2 SWAP1 PUSH2 0xADD JUMP JUMPDEST PUSH0 DUP1 DUP3 DUP3 SLOAD PUSH2 0x63B SWAP2 SWAP1 PUSH2 0xADD JUMP JUMPDEST SWAP3 POP POP DUP2 SWAP1 SSTORE POP PUSH1 0x1 PUSH0 DUP2 SLOAD DUP1 SWAP3 SWAP2 SWAP1 PUSH2 0x654 SWAP1 PUSH2 0xA96 JUMP JUMPDEST SWAP2 SWAP1 POP SSTORE POP CALLER PUSH20 0xFFFFFFFFFFFFFFFFFFFFFFFFFFFFFFFFFFFFFFFF AND PUSH32 0x1464AEBFD935135DF103ABCEE703EEE0165D4967204767E264B4CBB9A2A8A85A CALLVALUE PUSH1 0x3 PUSH0 CALLER PUSH20 0xFFFFFFFFFFFFFFFFFFFFFFFFFFFFFFFFFFFFFFFF AND PUSH20 0xFFFFFFFFFFFFFFFFFFFFFFFFFFFFFFFFFFFFFFFF AND DUP2 MSTORE PUSH1 0x20 ADD SWAP1 DUP2 MSTORE PUSH1 0x20 ADD PUSH0 KECCAK256 SLOAD PUSH1 0x40 MLOAD PUSH2 0x6DE SWAP3 SWAP2 SWAP1 PUSH2 0xA0F JUMP JUMPDEST PUSH1 0x40 MLOAD DUP1 SWAP2 SUB SWAP1 LOG2 POP POP POP POP POP JUMP JUMPDEST DUP2 PUSH0 DUP1 DUP5 PUSH20 0xFFFFFFFFFFFFFFFFFFFFFFFFFFFFFFFFFFFFFFFF AND DUP5 PUSH1 0x40 MLOAD PUSH2 0x714 SWAP1 PUSH2 0xB3D JUMP JUMPDEST PUSH0 PUSH1 0x40 MLOAD DUP1 DUP4 SUB DUP2 DUP6 DUP8 GAS CALL SWAP3 POP POP POP RETURNDATASIZE DUP1 PUSH0 DUP2 EQ PUSH2 0x74E JUMPI PUSH1 0x40 MLOAD SWAP2 POP PUSH1 0x1F NOT PUSH1 0x3F RETURNDATASIZE ADD AND DUP3 ADD PUSH1 0x40 MSTORE RETURNDATASIZE DUP3 MSTORE RETURNDATASIZE PUSH0 PUSH1 0x20 DUP5 ADD RETURNDATACOPY PUSH2 0x753 JUMP JUMPDEST PUSH1 0x60 SWAP2 POP JUMPDEST POP SWAP2 POP SWAP2 POP DUP2 PUSH2 0x79A JUMPI DUP1 PUSH1 0x40 MLOAD PUSH32 0x9DF665E200000000000000000000000000000000000000000000000000000000 DUP2 MSTORE PUSH1 0x4 ADD PUSH2 0x791 SWAP2 SWAP1 PUSH2 0xBC1 JUMP JUMPDEST PUSH1 0x40 MLOAD DUP1 SWAP2 SUB SWAP1 REVERT JUMPDEST POP POP DUP1 PUSH20 0xFFFFFFFFFFFFFFFFFFFFFFFFFFFFFFFFFFFFFFFF AND CALLER PUSH20 0xFFFFFFFFFFFFFFFFFFFFFFFFFFFFFFFFFFFFFFFF AND EQ PUSH2 0x80A JUMPI PUSH1 0x40 MLOAD PUSH32 0x9DF665E200000000000000000000000000000000000000000000000000000000 DUP2 MSTORE PUSH1 0x4 ADD PUSH2 0x801 SWAP1 PUSH2 0xC51 JUMP JUMPDEST PUSH1 0x40 MLOAD DUP1 SWAP2 SUB SWAP1 REVERT JUMPDEST PUSH0 DUP1 DUP5 PUSH20 0xFFFFFFFFFFFFFFFFFFFFFFFFFFFFFFFFFFFFFFFF AND DUP5 PUSH1 0x40 MLOAD PUSH2 0x830 SWAP1 PUSH2 0xB3D JUMP JUMPDEST PUSH0 PUSH1 0x40 MLOAD DUP1 DUP4 SUB DUP2 DUP6 DUP8 GAS CALL SWAP3 POP POP POP RETURNDATASIZE DUP1 PUSH0 DUP2 EQ PUSH2 0x86A JUMPI PUSH1 0x40 MLOAD SWAP2 POP PUSH1 0x1F NOT PUSH1 0x3F RETURNDATASIZE ADD AND DUP3 ADD PUSH1 0x40 MSTORE RETURNDATASIZE DUP3 MSTORE RETURNDATASIZE PUSH0 PUSH1 0x20 DUP5 ADD RETURNDATACOPY PUSH2 0x86F JUMP JUMPDEST PUSH1 0x60 SWAP2 POP JUMPDEST POP SWAP2 POP SWAP2 POP DUP2 PUSH2 0x8B6 JUMPI DUP1 PUSH1 0x40 MLOAD PUSH32 0x9DF665E200000000000000000000000000000000000000000000000000000000 DUP2 MSTORE PUSH1 0x4 ADD PUSH2 0x8AD SWAP2 SWAP1 PUSH2 0xBC1 JUMP JUMPDEST PUSH1 0x40 MLOAD DUP1 SWAP2 SUB SWAP1 REVERT JUMPDEST POP POP POP POP POP JUMP JUMPDEST PUSH0 DUP1 REVERT JUMPDEST PUSH0 PUSH20 0xFFFFFFFFFFFFFFFFFFFFFFFFFFFFFFFFFFFFFFFF DUP3 AND SWAP1 POP SWAP2 SWAP1 POP JUMP JUMPDEST PUSH0 PUSH2 0x8EA DUP3 PUSH2 0x8C1 JUMP JUMPDEST SWAP1 POP SWAP2 SWAP1 POP JUMP JUMPDEST PUSH2 0x8FA DUP2 PUSH2 0x8E0 JUMP JUMPDEST DUP2 EQ PUSH2 0x904 JUMPI PUSH0 DUP1 REVERT JUMPDEST POP JUMP JUMPDEST PUSH0 DUP2 CALLDATALOAD SWAP1 POP PUSH2 0x915 DUP2 PUSH2 0x8F1 JUMP JUMPDEST SWAP3 SWAP2 POP POP JUMP JUMPDEST PUSH0 PUSH1 0x20 DUP3 DUP5 SUB SLT ISZERO PUSH2 0x930 JUMPI PUSH2 0x92F PUSH2 0x8BD JUMP JUMPDEST JUMPDEST PUSH0 PUSH2 0x93D DUP5 DUP3 DUP6 ADD PUSH2 0x907 JUMP JUMPDEST SWAP2 POP POP SWAP3 SWAP2 POP POP JUMP JUMPDEST PUSH0 DUP2 SWAP1 POP SWAP2 SWAP1 POP JUMP JUMPDEST PUSH2 0x958 DUP2 PUSH2 0x946 JUMP JUMPDEST DUP3 MSTORE POP POP JUMP JUMPDEST PUSH0 PUSH1 0x20 DUP3 ADD SWAP1 POP PUSH2 0x971 PUSH0 DUP4 ADD DUP5 PUSH2 0x94F JUMP JUMPDEST SWAP3 SWAP2 POP POP JUMP JUMPDEST PUSH2 0x980 DUP2 PUSH2 0x946 JUMP JUMPDEST DUP2 EQ PUSH2 0x98A JUMPI PUSH0 DUP1 REVERT JUMPDEST POP JUMP JUMPDEST PUSH0 DUP2 CALLDATALOAD SWAP1 POP PUSH2 0x99B DUP2 PUSH2 0x977 JUMP JUMPDEST SWAP3 SWAP2 POP POP JUMP JUMPDEST PUSH0 PUSH1 0x20 DUP3 DUP5 SUB SLT ISZERO PUSH2 0x9B6 JUMPI PUSH2 0x9B5 PUSH2 0x8BD JUMP JUMPDEST JUMPDEST PUSH0 PUSH2 0x9C3 DUP5 DUP3 DUP6 ADD PUSH2 0x98D JUMP JUMPDEST SWAP2 POP POP SWAP3 SWAP2 POP POP JUMP JUMPDEST PUSH0 PUSH1 0x80 DUP3 ADD SWAP1 POP PUSH2 0x9DF PUSH0 DUP4 ADD DUP8 PUSH2 0x94F JUMP JUMPDEST PUSH2 0x9EC PUSH1 0x20 DUP4 ADD DUP7 PUSH2 0x94F JUMP JUMPDEST PUSH2 0x9F9 PUSH1 0x40 DUP4 ADD DUP6 PUSH2 0x94F JUMP JUMPDEST PUSH2 0xA06 PUSH1 0x60 DUP4 ADD DUP5 PUSH2 0x94F JUMP JUMPDEST SWAP6 SWAP5 POP POP POP POP POP JUMP JUMPDEST PUSH0 PUSH1 0x40 DUP3 ADD SWAP1 POP PUSH2 0xA22 PUSH0 DUP4 ADD DUP6 PUSH2 0x94F JUMP JUMPDEST PUSH2 0xA2F PUSH1 0x20 DUP4 ADD DUP5 PUSH2 0x94F JUMP JUMPDEST SWAP4 SWAP3 POP POP POP JUMP JUMPDEST PUSH32 0x4E487B7100000000000000000000000000000000000000000000000000000000 PUSH0 MSTORE PUSH1 0x11 PUSH1 0x4 MSTORE PUSH1 0x24 PUSH0 REVERT JUMPDEST PUSH0 PUSH2 0xA6D DUP3 PUSH2 0x946 JUMP JUMPDEST SWAP2 POP PUSH2 0xA78 DUP4 PUSH2 0x946 JUMP JUMPDEST SWAP3 POP DUP3 DUP3 SUB SWAP1 POP DUP2 DUP2 GT ISZERO PUSH2 0xA90 JUMPI PUSH2 0xA8F PUSH2 0xA36 JUMP JUMPDEST JUMPDEST SWAP3 SWAP2 POP POP JUMP JUMPDEST PUSH0 PUSH2 0xAA0 DUP3 PUSH2 0x946 JUMP JUMPDEST SWAP2 POP PUSH32 0xFFFFFFFFFFFFFFFFFFFFFFFFFFFFFFFFFFFFFFFFFFFFFFFFFFFFFFFFFFFFFFFF DUP3 SUB PUSH2 0xAD2 JUMPI PUSH2 0xAD1 PUSH2 0xA36 JUMP JUMPDEST JUMPDEST PUSH1 0x1 DUP3 ADD SWAP1 POP SWAP2 SWAP1 POP JUMP JUMPDEST PUSH0 PUSH2 0xAE7 DUP3 PUSH2 0x946 JUMP JUMPDEST SWAP2 POP PUSH2 0xAF2 DUP4 PUSH2 0x946 JUMP JUMPDEST SWAP3 POP DUP3 DUP3 ADD SWAP1 POP DUP1 DUP3 GT ISZERO PUSH2 0xB0A JUMPI PUSH2 0xB09 PUSH2 0xA36 JUMP JUMPDEST JUMPDEST SWAP3 SWAP2 POP POP JUMP JUMPDEST PUSH0 DUP2 SWAP1 POP SWAP3 SWAP2 POP POP JUMP JUMPDEST POP JUMP JUMPDEST PUSH0 PUSH2 0xB28 PUSH0 DUP4 PUSH2 0xB10 JUMP JUMPDEST SWAP2 POP PUSH2 0xB33 DUP3 PUSH2 0xB1A JUMP JUMPDEST PUSH0 DUP3 ADD SWAP1 POP SWAP2 SWAP1 POP JUMP JUMPDEST PUSH0 PUSH2 0xB47 DUP3 PUSH2 0xB1D JUMP JUMPDEST SWAP2 POP DUP2 SWAP1 POP SWAP2 SWAP1 POP JUMP JUMPDEST PUSH0 DUP2 MLOAD SWAP1 POP SWAP2 SWAP1 POP JUMP JUMPDEST PUSH0 DUP3 DUP3 MSTORE PUSH1 0x20 DUP3 ADD SWAP1 POP SWAP3 SWAP2 POP POP JUMP JUMPDEST DUP3 DUP2 DUP4 MCOPY PUSH0 DUP4 DUP4 ADD MSTORE POP POP POP JUMP JUMPDEST PUSH0 PUSH1 0x1F NOT PUSH1 0x1F DUP4 ADD AND SWAP1 POP SWAP2 SWAP1 POP JUMP JUMPDEST PUSH0 PUSH2 0xB93 DUP3 PUSH2 0xB51 JUMP JUMPDEST PUSH2 0xB9D DUP2 DUP6 PUSH2 0xB5B JUMP JUMPDEST SWAP4 POP PUSH2 0xBAD DUP2 DUP6 PUSH1 0x20 DUP7 ADD PUSH2 0xB6B JUMP JUMPDEST PUSH2 0xBB6 DUP2 PUSH2 0xB79 JUMP JUMPDEST DUP5 ADD SWAP2 POP POP SWAP3 SWAP2 POP POP JUMP JUMPDEST PUSH0 PUSH1 0x20 DUP3 ADD SWAP1 POP DUP2 DUP2 SUB PUSH0 DUP4 ADD MSTORE PUSH2 0xBD9 DUP2 DUP5 PUSH2 0xB89 JUMP JUMPDEST SWAP1 POP SWAP3 SWAP2 POP POP JUMP JUMPDEST PUSH32 0x4C6120646972656363696F6E2064656C207573756172696F2063616D62696F20 PUSH0 DUP3 ADD MSTORE PUSH32 0x647572616E746520656C2072657469726F206465204554482E00000000000000 PUSH1 0x20 DUP3 ADD MSTORE POP JUMP JUMPDEST PUSH0 PUSH2 0xC3B PUSH1 0x39 DUP4 PUSH2 0xB5B JUMP JUMPDEST SWAP2 POP PUSH2 0xC46 DUP3 PUSH2 0xBE1 JUMP JUMPDEST PUSH1 0x40 DUP3 ADD SWAP1 POP SWAP2 SWAP1 POP JUMP JUMPDEST PUSH0 PUSH1 0x20 DUP3 ADD SWAP1 POP DUP2 DUP2 SUB PUSH0 DUP4 ADD MSTORE PUSH2 0xC68 DUP2 PUSH2 0xC2F JUMP JUMPDEST SWAP1 POP SWAP2 SWAP1 POP JUMP INVALID LOG2 PUSH5 0x6970667358 0x22 SLT KECCAK256 RETURN GASPRICE 0xD8 0xD8 PUSH20 0xF26E16AD258AFBECFDE62BB3A3BC03090CE6F754 NUMBER 0xB5 DUP10 SELFBALANCE PUSH25 0xAD7664736F6C634300081A0033000000000000000000000000 "
		},
		"gasEstimates": {
			"creation": {
				"codeDepositCost": "647400",
				"executionCost": "infinite",
				"totalCost": "infinite"
			},
			"external": {
				"balances(address)": "2803",
				"deposit()": "infinite",
				"getBankStats()": "infinite",
				"getUserBalance(address)": "2874",
				"s_bankCap()": "infinite",
				"s_depositCount()": "2491",
				"s_withdrawalCount()": "2425",
				"s_withdrawalThreshold()": "infinite",
				"withdraw(uint256)": "infinite"
			},
			"internal": {
				"_safeTransfer(address,uint256)": "infinite"
			}
		},
		"methodIdentifiers": {
			"balances(address)": "27e235e3",
			"deposit()": "d0e30db0",
			"getBankStats()": "c6e8e38c",
			"getUserBalance(address)": "47734892",
			"s_bankCap()": "80ef10ed",
			"s_depositCount()": "cac2e25f",
			"s_withdrawalCount()": "b2343b1c",
			"s_withdrawalThreshold()": "c87a1ba2",
			"withdraw(uint256)": "2e1a7d4d"
		}
	},
	"abi": [
		{
			"inputs": [
				{
					"internalType": "uint256",
					"name": "_bankCap",
					"type": "uint256"
				},
				{
					"internalType": "uint256",
					"name": "_withdrawalThreshold",
					"type": "uint256"
				}
			],
			"stateMutability": "nonpayable",
			"type": "constructor"
		},
		{
			"inputs": [
				{
					"internalType": "uint256",
					"name": "attemptedAmount",
					"type": "uint256"
				},
				{
					"internalType": "uint256",
					"name": "availableCapacity",
					"type": "uint256"
				}
			],
			"name": "KipuBank_ExceedsBankCapacity",
			"type": "error"
		},
		{
			"inputs": [
				{
					"internalType": "uint256",
					"name": "requestedAmount",
					"type": "uint256"
				},
				{
					"internalType": "uint256",
					"name": "maxAllowed",
					"type": "uint256"
				}
			],
			"name": "KipuBank_ExceedsWithdrawalThreshold",
			"type": "error"
		},
		{
			"inputs": [
				{
					"internalType": "uint256",
					"name": "requestedAmount",
					"type": "uint256"
				},
				{
					"internalType": "uint256",
					"name": "availableBalance",
					"type": "uint256"
				}
			],
			"name": "KipuBank_InsufficientBalance",
			"type": "error"
		},
		{
			"inputs": [
				{
					"internalType": "bytes",
					"name": "mesgError",
					"type": "bytes"
				}
			],
			"name": "KipuBank_TransferFailed",
			"type": "error"
		},
		{
			"inputs": [],
			"name": "KipuBank_ZeroDepositAmount",
			"type": "error"
		},
		{
			"inputs": [],
			"name": "KipuBank_ZeroWithdrawalAmount",
			"type": "error"
		},
		{
			"anonymous": false,
			"inputs": [
				{
					"indexed": true,
					"internalType": "address",
					"name": "user",
					"type": "address"
				},
				{
					"indexed": false,
					"internalType": "uint256",
					"name": "amount",
					"type": "uint256"
				},
				{
					"indexed": false,
					"internalType": "uint256",
					"name": "newBalance",
					"type": "uint256"
				}
			],
			"name": "KipuBank_DepositMade",
			"type": "event"
		},
		{
			"anonymous": false,
			"inputs": [
				{
					"indexed": true,
					"internalType": "address",
					"name": "user",
					"type": "address"
				},
				{
					"indexed": false,
					"internalType": "uint256",
					"name": "amount",
					"type": "uint256"
				},
				{
					"indexed": false,
					"internalType": "uint256",
					"name": "remainingBalance",
					"type": "uint256"
				}
			],
			"name": "KipuBank_WithdrawalMade",
			"type": "event"
		},
		{
			"inputs": [
				{
					"internalType": "address",
					"name": "usuario",
					"type": "address"
				}
			],
			"name": "balances",
			"outputs": [
				{
					"internalType": "uint256",
					"name": "valor",
					"type": "uint256"
				}
			],
			"stateMutability": "view",
			"type": "function"
		},
		{
			"inputs": [],
			"name": "deposit",
			"outputs": [],
			"stateMutability": "payable",
			"type": "function"
		},
		{
			"inputs": [],
			"name": "getBankStats",
			"outputs": [
				{
					"internalType": "uint256",
					"name": "totalDeposited",
					"type": "uint256"
				},
				{
					"internalType": "uint256",
					"name": "remainingCapacity",
					"type": "uint256"
				},
				{
					"internalType": "uint256",
					"name": "totalDepositOps",
					"type": "uint256"
				},
				{
					"internalType": "uint256",
					"name": "totalWithdrawalOps",
					"type": "uint256"
				}
			],
			"stateMutability": "view",
			"type": "function"
		},
		{
			"inputs": [
				{
					"internalType": "address",
					"name": "user",
					"type": "address"
				}
			],
			"name": "getUserBalance",
			"outputs": [
				{
					"internalType": "uint256",
					"name": "balance",
					"type": "uint256"
				}
			],
			"stateMutability": "view",
			"type": "function"
		},
		{
			"inputs": [],
			"name": "s_bankCap",
			"outputs": [
				{
					"internalType": "uint256",
					"name": "",
					"type": "uint256"
				}
			],
			"stateMutability": "view",
			"type": "function"
		},
		{
			"inputs": [],
			"name": "s_depositCount",
			"outputs": [
				{
					"internalType": "uint256",
					"name": "",
					"type": "uint256"
				}
			],
			"stateMutability": "view",
			"type": "function"
		},
		{
			"inputs": [],
			"name": "s_withdrawalCount",
			"outputs": [
				{
					"internalType": "uint256",
					"name": "",
					"type": "uint256"
				}
			],
			"stateMutability": "view",
			"type": "function"
		},
		{
			"inputs": [],
			"name": "s_withdrawalThreshold",
			"outputs": [
				{
					"internalType": "uint256",
					"name": "",
					"type": "uint256"
				}
			],
			"stateMutability": "view",
			"type": "function"
		},
		{
			"inputs": [
				{
					"internalType": "uint256",
					"name": "_amount",
					"type": "uint256"
				}
			],
			"name": "withdraw",
			"outputs": [],
			"stateMutability": "payable",
			"type": "function"
		}
	]
}